:020000040800F2
:10000000C8080020210400080501000807010008B5
:100010000B0100080F010008130100080000000098
:1000200000000000000000000000000017010008B0
:1000300019010008000000001B010008A9240008A5
:100040003B0400083B0400083B0400083B04000894
:100050003B0400083B0400083B0400083B04000884
:100060003B0400083B0400083B0400083B04000874
:100070003B0400083B0400083B0400083B04000864
:100080003B0400083B0400083B0400083B04000854
:100090003B0400083B0400083B0400083B04000844
:1000A0003B0400083B0400083B0400083B04000834
:1000B000973700083B0400083B0400083B04000895
:1000C0003B0400083B0400083B0400083B04000814
:1000D0003B04000837260008CF2700082127000826
:1000E0003B0400083B0400083B040008DFF810D084
:1000F00004F03AF800480047FD020008AFF3008022
:10010000C8080020704700BFFEE700BFFEE700BF41
:10011000FEE700BFFEE77047704770470CB5002050
:10012000019000906C48006840F480306A49086093
:1001300000BF6948006800F4003000900198401C3E
:100140000190009818B90198B0F5A06FF1D16248FC
:10015000006800F4003010B10120009001E00020A0
:1001600000900098012843D15C48006840F01000DE
:100170005A4908600846006820F0030008600846F5
:10018000006840F0020008605348406852494860E7
:100190000846406848600846406840F4806048600F
:1001A0000846406820F47C1048600846406840F4E7
:1001B000E81048600846006840F08070086000BFA2
:1001C0004548006800F000700028F9D042484068B7
:1001D00020F00300404948600846406840F00200B3
:1001E000486000BF3C48406800F00C000828F9D186
:1001F0000CBD10B5FFF792FF10BD10B53648006872
:1002000040F001003449086008464068344908401D
:100210003149486008460068324908402E49086064
:100220000846006820F4802008600846406820F4F2
:10023000FE0048604FF41F008860FFF7DAFF4FF0C0
:1002400000602949086010BD10B50021002000227F
:10025000214B5B6803F00C0121B1042906D0082969
:1002600028D107E0214B224C236027E01F4B204C74
:10027000236023E0184B5B6803F47010164B5B6837
:1002800003F48032022303EB904022B9194B43431D
:10029000174C23600DE0104B5B6803F4003323B16F
:1002A000144B4343124C236003E0104B4343104C68
:1002B000236003E00D4B0E4C236000BF00BF064BD4
:1002C0005B68C3F303130C4CE15C094B1B68CB4028
:1002D000074C236010BD00000010024000200240C7
:1002E0000000FFF8FFFFF6FE08ED00E000127A00C4
:1002F0000000002000093D00040000204FF4407180
:1003000001F00702444B18684FF6FF031840434BB7
:10031000034343EA0220404B186000BF022002F072
:1003200015F9012002F012F94FF47A7002F07DF80D
:100330004FF4E13002F030F902F0CCFA02F0C6FEE0
:1003400002F05EFD02F036FE4FF4FA7002F0DAF8C9
:100350004FF4E13002F076F9C82002F0D3F8012022
:1003600002F0C8FFC82002F0CDF84B21012003F0B5
:1003700020F8C82002F0C6F8012002F0B2FFC82021
:1003800002F0C0F80021012002F0CDFFC82002F0E9
:10039000B9F80021012002F0B6FFC82002F0B2F83F
:1003A000022002F0A7FFC82002F0ACF84B21022087
:1003B00002F0FFFFC82002F0A5F8022002F091FF32
:1003C000C82002F09FF80021022002F0ACFFC820F4
:1003D00002F098F80021022002F095FFC82002F0F8
:1003E00091F841F61F41632002F0B6FD4FF416501C
:1003F00002F0A7F90FE00021012002F0CFFF022058
:1004000002F080F80021022002F0C8FF022002F072
:1004100079F803F0F3F9EEE70CED00E00000FA05DF
:100420000648804706480047FEE7FEE7FEE7FEE78E
:10043000FEE7FEE7FEE7FEE7FEE7FEE7FB0100085A
:10044000ED00000831490143314A1160704770B531
:10045000002100230F22C47804B32D4C246804F437
:10046000E064C4F5E064210AC1F10403CA404478A1
:1004700004FA03F18478144021430901254C0678DD
:10048000A155047804F01F050124AC4005786D11D6
:10049000AD0005F1E025C5F8004109E0047804F05D
:1004A0001F050124AC401C4D0678761145F8264006
:1004B00070BD1A4A0A400243154B1B1F1A60704751
:1004C00039B1134A121D12680243114B1B1D1A60E9
:1004D00006E00F4A121D126882430D4B1B1D1A6065
:1004E0007047042808D14FF0E021096941F0040168
:1004F0004FF0E022116107E04FF0E021096921F09F
:1005000004014FF0E0221161704700000000FA057D
:100510000CED00E000E400E080E100E080FFFF1F60
:1005200010B50446FA48844208D10121401500F074
:100530001DFE0021601500F019FE17E0F548844209
:1005400008D10121001500F011FE0021201500F056
:100550000DFE0BE0F048844208D10121C80300F0F1
:1005600005FE00214FF4004000F000FE10BD30B544
:100570000246002000235068E84C20400D790C68AA
:1005800044EA0524204350609068E54C2040D1E9BE
:1005900002542C434D7944EA450420439060D06ACC
:1005A00020F470000C7C641EE4B2234340EA035044
:1005B000D06230BD00210160017141718160C16074
:1005C00001210174704721B1826842F0010282600A
:1005D00003E0826822F001028260704721B18268E4
:1005E00042F48072826003E0826822F4807282604A
:1005F000704710B50023CBB21AB144681C43446065
:1006000002E044689C43446010BD816841F00801E9
:1006100081607047014600208A6802F008020AB132
:10062000012000E000207047816841F004018160F2
:100630007047014600208A6802F004020AB10120D6
:1006400000E00020704721B1826842F4A00282607D
:1006500003E0826822F4A002826070470146002015
:100660008A6802F480020AB1012000E0002070478D
:1006700010B50A4600210023416821F46041531E51
:1006800041EA4331416010BD21B1426842F4006249
:10069000426003E0426822F4006242607047F0B5B5
:1006A00004460D4600200021092D11DDE068A5F16A
:1006B0000A0606EB4607072606FA07F18843A5F166
:1006C0000A0606EB460603FA06F10843E0600CE072
:1006D000206905EB4507072606FA07F1884305EB75
:1006E000450603FA06F108432061072A0FDA606B1A
:1006F000561E06EB86071F2606FA07F18843561E8C
:1007000006EB860605FA06F10843606322E00D2A2F
:100710000FDA206BD61F06EB86071F2606FA07F1B5
:100720008843D61F06EB860605FA06F108432063C8
:1007300010E0E06AA2F10D0606EB86071F2606FA16
:1007400007F18843A2F10D0606EB860605FA06F1CD
:100750000843E062F0BD21B1826842F480128260F9
:1007600003E0826822F48012826070470146C86C00
:1007700080B2704766484C300068704721B14268CB
:1007800042F48062426003E0426822F48062426088
:10079000704721B1426842F48052426003E04268EF
:1007A00022F48052426070470A460021816821F499
:1007B000E04111438160704721B1826842F40042F8
:1007C000826003E0826822F400428260704721B1B7
:1007D000826842F40212826003E0826822F402120C
:1007E00082607047014600208A6802F400120AB154
:1007F000012000E000207047F0B5044615460020B7
:1008000000220026092911DDE068A1F10A0707EBA3
:10081000470C072707FA0CF29043A1F10A0707EBF0
:10082000470703FA07F21043E0600CE0206901EB90
:10083000410C072707FA0CF2904301EB410703FA3A
:1008400007F210432061A06BC0F30156EF1C06F1C4
:10085000010CA7EB0C0707EB870C1F2707FA0CF21C
:100860009043EF1C06F1010CA7EB0C0707EB870781
:1008700001FA07F21043A063F0BD10B50A4600214B
:100880000023816B21F44011531E41EA035181631F
:1008900010BD08B5002300930090009B0B4400930B
:1008A000009B1A6008BD08B5024600200090009227
:1008B00001F12800009B184400900098006880B265
:1008C00008BD0A4600214168164B1940114341609A
:1008D00070474162826270470A460021416821F0F8
:1008E0001F0111434160704740B10949083109684F
:1008F00041F40001064A0832116007E0044908315A
:10090000096821F40001024A0832116070470000B2
:100910000024014000280140003C0140FFFEF0FFA0
:10092000FDF7F1FFFFFD3FFF0246002013680B407B
:100930000BB1012000E000207047CA4302607047FD
:1009400070B502460020002300240B125568CEB279
:1009500005EA060415681D4015B10CB1012000E040
:10096000002070BD00220A12D343036070470000CC
:1009700010B5012000F014FC002000F011FC10BDA7
:100980002A49086070472949091F086070472749AC
:1009900084310860704701460020254A10884FF6D0
:1009A0007F4210400843224A1080704701460020D1
:1009B0001F4A10884FF68072104008431C4A10806E
:1009C000704708B500220092194A2C3A0092009A0A
:1009D00002440092009A116008BD08B5014600204B
:1009E000009013482C38009000980844009000981C
:1009F000008808BD0D489C300068C0B270470C48A4
:100A00000830008840F0010009490831088070472B
:100A10000648A0300068C0B270470548083000881A
:100A200040F00200024908310880704704860D42F8
:100A30002C6C004010B50446CC48844208D10121FA
:100A4000042000F093FB0021042000F08FFB46E01F
:100A5000C748844208D10121082000F087FB00210B
:100A6000082000F083FB3AE0C248844208D101210B
:100A7000102000F07BFB0021102000F077FB2EE01F
:100A8000BD48844208D10121202000F06FFB0021E5
:100A9000202000F06BFB22E0B848844208D10121FD
:100AA000402000F063FB0021402000F05FFB16E0D7
:100AB000B348844208D10121802000F057FB002177
:100AC000802000F053FB0AE0AE48844207D10121A8
:100AD000801500F04BFB0021A01500F047FB10BD76
:100AE00010B50121084600F041FB0021012000F073
:100AF0003DFB10BD2DE9F0410246002500260020F7
:100B000000230024002791F803C00CF00F0591F892
:100B100003C00CF0100CBCF1000F03D091F802C020
:100B20004CEA050591F800C0BCF1000F31D0146803
:100B300000202BE04FF0010C0CFA00F3B1F800C0DC
:100B40000CEA03069E4220D183004FF00F0C0CFAF2
:100B500003F7BC4305FA03FC4CEA040491F803C014
:100B6000BCF1280F06D14FF0010C0CFA00FCC2F8C2
:100B700014C00AE091F803C0BCF1480F05D14FF052
:100B8000010C0CFA00FCC2F810C0401C0828D1D39C
:100B90001460B1F800C0BCF1FF0F34DD54680020D0
:100BA0002EE000F1080C4FF0010808FA0CF3B1F840
:100BB00000C00CEA03069E4221D183004FF00F0CC7
:100BC0000CFA03F7BC4305FA03FC4CEA040491F861
:100BD00003C0BCF1280F05D100F1080C08FA0CF88D
:100BE000C2F8148091F803C0BCF1480F07D100F19E
:100BF000080C4FF0010808FA0CF8C2F81080401CED
:100C00000828CED35460BDE8F0814FF6FF71018013
:100C1000022181700421C170704702460020936850
:100C20000B400BB1012000E00020704701468868AE
:100C300080B2704702460020D3680B400BB1012000
:100C400000E0002070470146C86880B2704701612B
:100C50007047416170470AB1016100E0416170472E
:100C6000C16070474FF480320A43826181618261C2
:100C700082698269704702460020434B18684FF62C
:100C80008073184040EA021008433F4B18607047D9
:100C90003E49C8617047F0B50A4600230024002190
:100CA000002500F00046B6F1004F02D1364EF16942
:100CB00001E0354E7168C0F3034583B200F440167D
:100CC000B6F5401F08D121F070612F4E766826F0EE
:100CD00070662D4F7E6012E000F48016B6F5801F1E
:100CE00006D1032606FA05F4A14341F0706106E03F
:100CF000460D360103FA06F6B14341F0706122B1A8
:100D0000460D360103FA06F6314300F00046B6F10F
:100D1000004F02D11C4EF16101E01B4E7160F0BD2D
:100D200030B500228B071C0F0F2303FA04F2164B79
:100D300008338C1053F824309343134C08348D102F
:100D400044F8253023468C1053F824308C07240FA8
:100D500000FA04F423430C4C08348D1044F8253079
:100D600030BD0A49DC3108607047000000080140CE
:100D7000000C014000100140001401400018014027
:100D8000001C014000200140000001400000204202
:100D900010B50121080700F0F6F900214FF080504E
:100DA00000F0F1F910BD2A4908627047284908612E
:100DB000704701460020274A106820F0E0000843F1
:100DC000106070472249A0310860704710B5024694
:100DD0000020204B186820F00300104318601E4BC1
:100DE0001B6843F004031C4C2360012901D130BF70
:100DF00000E020BF184B1B6823F00403164C23604F
:100E000010BD1448006840F004001249086008460C
:100E1000006840F0020008600F48006840F00400DD
:100E20000D49086000BF00BF30BF70470146002079
:100E3000084A52680A400AB1012000E000207047C9
:100E40000449096841EA8001024A116070470000C4
:100E500000000E420070004010ED00E0DF48006826
:100E600040F00100DD49086008464068DC49084060
:100E7000DA49486008460068DA490840D7490860FE
:100E80000846006820F4802008600846406820F486
:100E9000FE0048604FF41F0088607047CF49096822
:100EA00021F48031CD4A11601146096821F4802176
:100EB0001160B0F5803F03D0B0F5802F0ED106E071
:100EC000C649096841F48031C44A116007E0C3494A
:100ED000096841F4A021C14A116000E000BF00BFD1
:100EE000704710B501460022002300204A11012A54
:100EF00002D1BA4C236806E0022A02D1B74C236A19
:100F000001E0B64C636A01F01F02012494401C40CA
:100F10000CB1012000E0002010BD38B50020009089
:100F20000024002500BF3120FFF7DBFF05460098B5
:100F3000401C00900098B0F5A06F01D0002DF2D0B9
:100F40003120FFF7CEFF08B1012400E00024204645
:100F500038BD01460020A14A106820F0F80040EAA0
:100F6000C10010607047A049086070470246002029
:100F70009A4B586820F47C1042EA01031843974BBF
:100F80005860704798490866704701460020934AA8
:100F9000506820F003000843506070478F48406855
:100FA00000F00C007047014600208C4A506820F089
:100FB000F00008435060704701460020874A50689F
:100FC00020F4E06008435060704701460020834AE7
:100FD000506820F4605040EAC1005060704729B169
:100FE0007E4A527A02437D4B5A7204E07B4A527A1F
:100FF00082437A4B5A7270477B49D83108607047F8
:1010000001460020754A506820F440400843506073
:1010100070470021714A20321170704A82F8201006
:10102000012802D004280AD104E001216B4A2032B1
:10103000117005E00521694A2032117000E000BFFF
:1010400000BF70476949086070476449096A0143F5
:10105000624A11627047654944390860704730B58B
:1010600000210022002400235C4D6D6805F00C0176
:1010700021B1042905D0082923D105E05C4D056084
:1010800022E05B4D05601FE0544D6D6805F4701261
:10109000524D6D6805F48034022505EB92421CB96F
:1010A000544D554305600BE04C4D6D6805F400351B
:1010B0001DB1504D5543056002E04D4D554305604F
:1010C00002E04B4D056000BF00BF444D6D6805F068
:1010D000F0010909484D6B5C0568DD4045603F4DF6
:1010E0006D6805F4E061090A434D6B5C4568DD40BD
:1010F00085603A4D6D6805F46051C90A3E4D6B5CE0
:101100004568DD40C560354D6D6805F44041890B8B
:101110003A4D6B5CC568B5FBF3F5056130BD29B18F
:101120002E4A526902432D4B5A6104E02B4A526900
:1011300082432A4B5A61704729B1284A9269024377
:10114000264B9A6104E0254A92698243234B9A61B7
:10115000704729B1214AD2690243204BDA6104E089
:101160001E4AD26982431D4BDA61704729B11B4A7E
:10117000D2680243194BDA6004E0184AD26882430D
:10118000164BDA60704729B1144A12690243134BB7
:101190001A6104E0114A12698243104B1A617047C8
:1011A00012494039086070470F49C86470470B49BD
:1011B000C87170470948406A40F08070074948622A
:1011C000704701460020054A92680A400AB1012092
:1011D00000E000207047014988727047001002400B
:1011E0000000FFF8FFFFF6FE00004242800442428A
:1011F00000127A0000093D001400002024000020A5
:1012000010B50446FE48844208D10121C014FFF7FE
:10121000ADFF0021E014FFF7A9FFC4E0B4F1804F57
:1012200008D101210846FFF7AEFF00210120FFF79A
:10123000AAFFB8E0F348844208D101210220FFF759
:10124000A2FF00210220FFF79EFFACE0EE4884429F
:1012500008D101210420FFF796FF00210420FFF7A9
:1012600092FFA0E0E948844208D101210820FFF75D
:101270008AFF00210820FFF786FF94E0E4488442BB
:1012800008D101211020FFF77EFF00211020FFF779
:101290007AFF88E0DF48844208D101212020FFF74F
:1012A00072FF00212020FFF76EFF7CE0DA488442C5
:1012B00008D101214014FFF759FF00216014FFF706
:1012C00055FF70E0D548844209D10121C804FFF7D9
:1012D0004DFF00214FF40020FFF748FF63E0D048A6
:1012E000844209D101210805FFF740FF00214FF496
:1012F0008010FFF73BFF56E0CA48844209D1012124
:101300004805FFF733FF00214FF40010FFF72EFFD1
:1013100049E0C548844208D101214020FFF733FF4E
:1013200000214020FFF72FFF3DE0C048844208D154
:1013300001218020FFF727FF00218020FFF723FFF6
:1013400031E0BB48844208D101218015FFF71BFF23
:101350000021A015FFF717FF25E0B648844209D108
:1013600001210804FFF702FF00214FF48030FFF74E
:10137000FDFE18E0B048844209D101214804FFF77E
:10138000F5FE00214FF40030FFF7F0FE0BE0AB4814
:10139000844208D101218804FFF7E8FE00214FF4C0
:1013A0008020FFF7E3FE10BD00220288944B984294
:1013B0000ED0994B98420BD0B0F1804F08D0914B92
:1013C000984205D0904B984202D0904B984204D15D
:1013D0004FF68F731A404B881A438D4B984207D0B3
:1013E0008C4B984204D04FF6FF431A40CB881A43E7
:1013F00002808B8883850B880385814B98420BD0B4
:10140000854B984208D08B4B984205D08A4B984226
:1014100002D08A4B984201D10B7A03860123838242
:10142000704770B5002400220023058C4FF6FE762D
:1014300035400584028C8388048B4FF68F752C40D1
:10144000B51E2C400D882C43751E2A400D892A4359
:101450004D882A436A4DA8420BD06F4DA84208D050
:10146000744DA84205D0744DA84202D0734DA842D5
:1014700013D14FF6F7752A404D892A434FF6FB7575
:101480002A408D882A434FF6FF652B404FF6FF55C3
:101490002B408D892B43CD892B4383800483CD88BA
:1014A0008586028470BD70B5002400220023058C5F
:1014B0004FF6EF7635400584028C8388048B48F61E
:1014C000FF752C404FF6FF452C400D884FF6FF76F8
:1014D00006EA05252C434FF6DF752A400D8906EAFA
:1014E00005152A434D8806EA05152A43444DA842AE
:1014F00002D0494DA8421DD14FF67F752A404D8933
:101500004FF6FF7606EA05152A434FF6BF752A40C7
:101510008D8806EA05152A434FF6FF352B404FF21A
:10152000FF752B408D8906EA85052B43CD8906EA98
:1015300085052B4383800483CD880587028470BD95
:1015400070B5002400220023058C4FF6FF6635405D
:101550000584028C8388848B4FF68F752C404FF660
:10156000FC752C400D882C434FF6FF552A400D8901
:101570004FF6FF7606EA05252A434D8806EA05253B
:101580002A431F4DA84202D0234DA8421DD14FF23D
:10159000FF752A404D894FF6FF7606EA05252A4356
:1015A0004FF6FF352A408D8806EA05252A434EF678
:1015B000FF752B404DF6FF752B408D8906EA05150A
:1015C0002B43CD8906EA05152B4383808483CD8880
:1015D0008587028470BD70B5002200230024058C2D
:1015E0004EF6FF7635400584038C8488828B48F65E
:1015F000FF752A404FF6FF452A400D8820E0000085
:10160000002C01400004004000080040000C004095
:10161000001000400014004000340140004C014024
:10162000005001400054014000180040001C0040E0
:1016300000200040004001400044014000480140BB
:101640004FF6FF7606EA05252A434DF6FF752B4037
:101650000D8906EA05352B434D8806EA05352B43EF
:10166000FA4DA84202D0FA4DA84208D14BF6FF75B8
:101670002C408D894FF6FF7606EA85152C43848031
:101680008283CD88A0F84050038470BD828B4FF2D6
:10169000FF331A408283828B4FF6FF7303EA0123E4
:1016A0001A4382837047F0B50C461546002200218C
:1016B0000026078C4EF6FF7C07EA0C070784828B16
:1016C000018C4FF6FF7707EA043640F6FF473A40B1
:1016D0004FF6FF7707EA05273A434FF6FF7707EA09
:1016E00003373A43D94FB8420ED0D94FB8420BD046
:1016F000B0F1804F08D0D74FB84205D0D64FB8428E
:1017000002D0D64FB84206D14DF6FF77394046F4A5
:101710008057394305E047F6FF57394044F4805776
:10172000394382830184F0BD828B4FF6F3731A40F4
:101730008283828B0A4382837047F0B50C4615463C
:10174000002200210026078C4FF6FF6C07EA0C07E9
:101750000784828B018C4FF6FF7707EA04264FF649
:101760000C773A404FF6FF7707EA03172F433A43C7
:10177000B64FB8420ED0B64FB8420BD0B0F1804F42
:1017800008D0B44FB84205D0B34FB84202D0B34FDF
:10179000B84206D14FF6FF57394046F480773943B7
:1017A00005E04FF2FF57394044F480773943828394
:1017B0000184F0BD028B4FF2FF331A400283028B8B
:1017C0004FF6FF7303EA01231A4302837047F0B513
:1017D0000C461546002200210026078C4FF6EF7CB0
:1017E00007EA0C070784028B018C4FF6FF7707EAA4
:1017F000041640F6FF473A404FF6FF7707EA0337F3
:101800003A434FF6FF7707EA05273A438F4FB8422E
:101810000ED08F4FB8420BD0B0F1804F08D08D4F13
:10182000B84205D08C4FB84202D08C4FB84206D196
:101830004FF6DF77394046F01007394305E04FF6A1
:101840005F77394044F01007394302830184F0BDCB
:10185000028B4FF6F3731A400283028B0A43028312
:101860007047F0B50C46154600220021068C4FF655
:10187000FE773E400684028B018C4FF60C76324098
:101880007E1C06EA03162E433243704EB0420ED041
:101890006F4EB0420BD0B0F1804F08D06D4EB042C9
:1018A00005D06D4EB04202D06C4EB04206D14FF61C
:1018B000FD76314044F00106314305E04FF6F57600
:1018C000314044F00106314302830184F0BD70B51C
:1018D00005460C465D4885420ED05D4885420BD0DA
:1018E000B5F1804F08D05B48854205D05A48854203
:1018F00002D05A48854200D100E000BF208850B98C
:101900002389A28861882846FFF7ABFFE188284633
:10191000FFF79EFF25E0208804280AD12389A288AA
:1019200061882846FFF753FFE1882846FFF742FF0A
:1019300017E0208808280AD12389A28861882846D0
:10194000FFF7FBFEE1882846FFF7EEFE09E023895A
:10195000A28861882846FFF7A6FEE1882846FFF79F
:1019600095FE70BD2DE9F04105460C460026012785
:10197000608808B9022600E00026A088012801D16D
:10198000022700E001272088A0B92389A288618866
:101990002846FFF766FFE1882846FFF759FF2389AD
:1019A0003A4631462846FFF712FFE1882846FFF7FE
:1019B00001FF13E02389A28861882846FFF707FF0B
:1019C000E1882846FFF7F6FE23893A463146284645
:1019D000FFF747FFE1882846FFF73AFFBDE8F081AF
:1019E0000A884B881A438B881A43CB881A430B8981
:1019F0001A434B891A438B891A43A0F84420704735
:101A00004FF6FF71818000210180C1804180017209
:101A100070470021018041808180C1800181418126
:101A20008181C18170470021018041800121818035
:101A30000021C180018170470021018041808180A7
:101A4000C18001814181818170470000002C0140EB
:101A5000003401400004004000080040000C004039
:101A600021B1028842F00102028004E002884FF6B0
:101A7000FE731A400280704731B1B0F8442042F43E
:101A80000042A0F8442005E0B0F84420C2F30E0262
:101A9000A0F8442070471AB183890B43838102E088
:101AA00083898B43838170478182704741EA0203B7
:101AB000A0F8483070471AB183890B43838102E054
:101AC00083898B438381704701894FF6F8721140F7
:101AD000018170470A46002101894FF68F73194032
:101AE00011430181704730B504460D462946204612
:101AF000FFF7F0FF208940F00700208130BD2DE97D
:101B0000F04104460D4616461F46602D06D13B4661
:101B1000012231462046FFF75AFE05E03B460122EE
:101B200031462046FFF79DFE29462046FFF7D2FFAB
:101B3000208940F007002081BDE8F08130B50C46D7
:101B400000210189C9B24FF6FF7505EA0325154347
:101B500025432943018130BD2DE9F04105460E465C
:101B600017469846002443463A4631462846FFF732
:101B7000E5FF2C894FF6F870044044F007044FF657
:101B80008F70044044F070042C81BDE8F081F0B502
:101B900004460D4616461F463B4632462946204619
:101BA000FFF7CCFF208940F480402081F0BD018503
:101BB000828270470A46002101884FF68F731940D0
:101BC000114301807047F0B50C4615461E460021B2
:101BD000002200230189028B038C4FF6F8773940ED
:101BE00021434FF6FC473A4040F201173A434FF683
:101BF000DD773B404FF6FF7707EA06172F433B435D
:101C0000018102830384F0BD0A460021018B4FF657
:101C10008F7319401143018370470A460021018BDD
:101C200048F6FF7319404FF6FF7303EA0223194386
:101C3000018370470A460021818B4FF68F7319404C
:101C40001143818370470A460021818B48F6FF7358
:101C500019404FF6FF7303EA02231943818370474B
:101C600021B1028842F08002028004E002884FF62F
:101C70007F731A400280704721B1828842F00402CB
:101C8000828004E082884FF6FB731A40828070479E
:101C900021B1828842F00802828004E082884FF6F7
:101CA000F7731A408280704721B1828842F00102A6
:101CB000828004E082884FF6FE731A40828070476B
:101CC0000A460021018B4FF6F77319401143018337
:101CD00070470A460021018B4FF2FF7319404FF6FF
:101CE000FF7303EA02231943018370470A46002168
:101CF000818B4FF6F77319401143818370470A4671
:101D00000021818B4FF2FF7319404FF6FF7303EAF6
:101D100002231943818370470A460021018B4FF645
:101D2000FB7319401143018370470A460021018B60
:101D30004FF6FF3319404FF6FF7303EA02231943AE
:101D4000018370470A460021818B4FF6FB731940CF
:101D50001143818370470A460021818B4FF6FF3380
:101D600019404FF6FF7303EA02231943818370473A
:101D70000A460021018B4FF67F73194011430183FE
:101D800070470A460021018BC1F30E014FF6FF7325
:101D900003EA02231943018370470A460021818B1D
:101DA0004FF67F7319401143818370470A46002123
:101DB000818BC1F30E014FF6FF7303EA022319432F
:101DC000818370470A460021018C4FF6FD7319404C
:101DD0001143018470470A460021018C4FF6F773C6
:101DE00019401143018470470A460021018C4FF6C7
:101DF000DF7319404FF6FF7303EA0213194301849E
:101E000070470A460021018C4FF67F7319404FF648
:101E1000FF7303EA02131943018470470A46002145
:101E2000018C4FF6FF5319404FF6FF7303EA02236C
:101E30001943018470470A460021018C4FF2FF7359
:101E400019404FF6FF7303EA0223194301847047D8
:101E50000A460021018C4DF6FF7319404FF6FF73BF
:101E600003EA023319430184704730B5002301248B
:101E70008C40A3B2048C9C430484048C02FA01F5C8
:101E8000ADB22C43048430BD30B5002304248C4013
:101E9000A3B2048C9C430484048C02FA01F5ADB215
:101EA0002C43048430BD70B503460020002418463E
:101EB000183001258D40ACB21D8CA5431D8409B19D
:101EC000082909D100EB6100056825F0700505605F
:101ED0000568154305600EE00D1FC5F34E05284447
:101EE000056825F4E045056005684FF6FF7606EACB
:101EF00002263543056070BD21B1028842F002021E
:101F0000028004E002884FF6FD731A400280704799
:101F100021B1028842F00402028004E002884FF6F8
:101F2000FB731A400280704721B1828842F0800220
:101F3000828004E082884FF67F731A408280704767
:101F400002884FF6F7731A40028002880A43028023
:101F5000704782884FF68F731A40828082880A43C6
:101F60008280704702894FF6F8731A400281028915
:101F70000A430281704702894FF67F731A4002813B
:101F800002890A43028170478184704781857047C6
:101F9000818670470187704781877047A0F840109D
:101FA000704702884FF6FF431A40028002880A43B6
:101FB000028070470146888E70470146088F70473F
:101FC0000146888F70470146B1F8400070470146CE
:101FD000888C70470146088D704702460020138A9E
:101FE0000B400BB1012000E000207047CA43028281
:101FF000704730B50246002000230024158A05EA08
:102000000103958905EA010413B10CB1012000E038
:10201000002030BDCA4302827047000010B504465C
:10202000FB48844209D101218803FFF79FF8002172
:102030004FF48040FFF79AF832E0F648844209D125
:1020400001214804FFF79FF800214FF40030FFF70B
:102050009AF825E0F048844209D101218804FFF76D
:1020600092F800214FF48020FFF78DF818E0EB483C
:10207000844209D10121C804FFF785F800214FF4FB
:102080000020FFF780F80BE0E548844208D10121E9
:102090000805FFF778F800214FF48010FFF773F878
:1020A00010BD2DE9F04786B005460E460024A24635
:1020B00000BFA1460027B08900B100BF2F462C8A7F
:1020C0004CF6FF700440F08804432C82AC894EF635
:1020D000F3100440B08831890843718908430443F0
:1020E000AC81AC8A4FF6FF400440B0890443AC8217
:1020F00001A8FEF7B4FFC648874202D1DDF810A060
:1021000001E0DDF80CA0A88900F4004040B10AEB22
:10211000CA0000EB0A1031684900B0FBF1F807E093
:102120000AEBCA0000EB0A1031688900B0FBF1F835
:102130006420B8FBF0F004012009642101FB108940
:10214000A88900F4004040B1322000EBC900B0FB88
:10215000F1F000F00700044308E0322000EB091022
:102160006421B0FBF1F000F00F0004432C8106B0B5
:10217000BDE8F0874FF41651016000218180C180D5
:1021800001810C21418100218181704710B50246F7
:102190000020108A4FF2FF0318400B884C8823431D
:1021A0008C882343CC8823431843108210BD002120
:1021B000018041808180C180704721B1828942F4D1
:1021C0000052828104E082894DF6FF731A408281B9
:1021D0007047F0B50346002400260025002040F695
:1021E0006A17B94200D100BF1846C1F3421401F08A
:1021F0001F06012707FA06F5012C01D10C3004E077
:10220000022C01D1103000E014301AB107682F43BE
:10221000076002E00768AF430760F0BD1AB1838A28
:102220000B43838202E0838A8B4383827047028A56
:102230004FF6F0731A400282028A0A430282704704
:1022400082894FF2FF731A40828182890A43828118
:10225000704721B1828942F00202828104E08289C2
:102260004FF6FD731A4082817047028A4FF6DF7382
:102270001A400282028A0A430282704721B1028A0E
:1022800042F48042028204E0028A4BF6FF731A4055
:1022900002827047C1F30802828070470146888835
:1022A000C0F308007047818941F0010181817047C6
:1022B000028BD2B20283028B42EA01220283704770
:1022C000028B02F47F420283028B0A43028370472F
:1022D00021B1828A42F02002828204E0828A4FF693
:1022E000DF731A408282704721B1828A42F0100265
:1022F000828204E0828A4FF6EF731A40828270472E
:1023000021B1828A42F00802828204E0828A4FF67A
:10231000F7731A408282704721B1828942F40042E9
:10232000828103E08289C2F30E028281704721B16B
:10233000828A42F40062828204E0828A4FF2FF7352
:102340001A4082827047828A4FF6FB731A4082825B
:10235000828A0A438282704721B1828A42F0020255
:10236000828204E0828A4FF6FD731A4082827047AF
:1023700002460020B1F5007F00D100BF13880B405A
:102380000BB1012000E00020704701F40072B2F5AB
:10239000007F00D100BFCA430280704770B502467B
:1023A000002400230025002040F66A16B14200D127
:1023B00000BFC1F3421501F01F03012606FA03F323
:1023C000012D02D19689334006E0022D02D1168AF2
:1023D000334001E0968A33400C12012606FA04F4D9
:1023E0001688344013B10CB1012000E0002070BD0C
:1023F00010B50022002340F66A14A14200D100BFAC
:102400000A1201249440A3B2DC43048010BD0000F2
:10241000003801400044004000480040004C0040AB
:102420000050004041480068704730B54FF0FF3120
:102430000022002907DA13071D0E3D4B01F00F049F
:10244000241F1D5503E013071C0E3A4B5C5400BFBC
:10245000394908604FF0E021096921F004014FF08B
:10246000E022116135490968C908B1FBF0F1491E44
:10247000516132490968C908B1FBF0F1304A116075
:102480003049B1FBF0F1304A116000214FF0E022F9
:1024900091611146096941F0020111611146096912
:1024A00041F00101116130BD20480068401C1F4906
:1024B0000860704770B5244D2D68A84201D9224D9F
:1024C00028681E4D2D68ED081E4EB5FBF6F56843D5
:1024D00000234FF0E025A969002200240FE04FF00F
:1024E000E025AA698A4200D9012424B1144D2D683F
:1024F0000D44AB1A00E08B1A834200D300E0EEE7F4
:1025000000BF70BD10B50146FFF78CFF02460A48B8
:1025100000684FF47A74B0FBF4F000FB01F300BFE5
:10252000FFF780FF801A9842FAD310BD28000020E0
:1025300018ED00E000E400E034000020000000207E
:102540002C00002040420F003000002001464906C8
:10255000084A926942F00102064B9A61064A5268A3
:1025600022F0E062044B5A601A4652680A435A60ED
:1025700070470000001002400000014000BF70479B
:1025800000BFC84A128802F04002002AF9D0C2B245
:10259000C44B1B1D1A80704710B586B0044601213C
:1025A00044F20400FEF7C8FD4FF40070ADF81400CB
:1025B00003208DF8160018208DF8170005A9BA48D9
:1025C000FEF798FA4FF48060ADF8140004208DF8FF
:1025D000170005A9B448FEF78DFA01940020ADF864
:1025E0000800ADF80A00ADF80C00ADF810000C20A2
:1025F000ADF80E0001A9AB48FFF753FD4FF4A06002
:10260000FDF720FF25208DF8000001208DF8030044
:102610008DF801008DF802006846FDF718FF0122D1
:1026200040F225519F48FFF7D4FD01219D48FFF757
:10263000C4FD06B010BD10B540F225519948FFF712
:10264000ADFE10BD10B586B0044601210820FEF78E
:1026500073FD01218804FEF77CFD4FF48060ADF826
:10266000140018208DF8170003208DF8160005A916
:102670008E48FEF73FFA4FF40060ADF81400482092
:102680008DF8170005A98948FEF734FA0194002057
:10269000ADF80800ADF80A00ADF80C00ADF8100078
:1026A0000C20ADF80E0001A98148FFF7FAFC2720A5
:1026B0008DF8000002208DF801008DF80200012045
:1026C0008DF803006846FDF7C2FE012240F2255155
:1026D0007748FFF77EFD01217548FFF76EFD402129
:1026E0007348FFF752FE06B010BD10B504462146F0
:1026F0006F48FFF7CFFD00BF80216D48FFF738FE20
:102700000028F9D010BD70B505460E46002404E03F
:10271000285DFFF7EAFF601CC4B2B442F8DB70BD6D
:1027200010B540F225516248FFF738FE40B16048CD
:10273000FFF7B4FD5F4908700846007800F078FEA6
:1027400010BD10B586B0044601210420FEF7F4FC4C
:1027500001214804FEF7FDFC0820ADF81400042018
:102760008DF8170003208DF8160005A94E48FEF7D6
:10277000C1F901940020ADF80800ADF80A00ADF8E9
:102780000C00ADF810000420ADF80E0001A94A4875
:10279000FFF787FC4FF4A060FDF754FE26208DF86C
:1027A000000001208DF803008DF801008DF8020073
:1027B0006846FDF74CFE012240F225513E48FFF7E6
:1027C00008FD01213C48FFF7F8FC06B010BD70B5CC
:1027D00008213948FFF7CCFD40B13748FFF75EFDCF
:1027E000C4B208213448FFF7D0FD70BD40F2255136
:1027F0003148FFF7D3FD002851D02F48FFF74EFD99
:10280000C4B22E48007810B101283CD109E0CC2C8C
:1028100006D12B48047001202A4908702749087006
:1028200037E0284801780078401C264A1070244878
:102830004454104600780B2824DB2148807ADD2898
:102840001BD11F48457A092100F00AFD0646AE4219
:1028500012D11B4840791A49897940EA01201A4966
:1028600008801748C0791649097A40EA01201749BB
:10287000088001201649087000BF00200F49087029
:102880001049087005E000200C4908700D490870D7
:1028900000BF00BF40F225510748FFF7A9FD00BF68
:1028A000A3E700000038014000080140000C01408F
:1028B0000048004043000020004400403D0000204C
:1028C000840000203C0000203E000020400000204A
:1028D0004200002008B501210420FEF72DFC102045
:1028E000ADF800008DF8030003208DF80200694662
:1028F0000148FEF7FFF808BD0008014010B50A4680
:102900001AB10123FE4C236002E00023FC4C23603B
:10291000002114E00023FB4C236000F080031BB176
:102920000123241F236003E00023F64C241F2360AF
:102930000123F44C23604306180E4B1CD9B208291E
:10294000E8DB0123EE4C236010BD30B500241CE011
:1029500004F1B001C8B20021FFF7D0FF0021084602
:10296000FFF7CCFF00211020FFF7C8FF002508E08B
:10297000E54901EBC501085D0121FFF7BFFF681CB8
:10298000C5B2802DF4DB601CC4B2082CE0DB30BD86
:1029900000B500218D20FFF7B1FF00211420FFF7C3
:1029A000ADFF0021AF20FFF7A9FF00BD00B500215A
:1029B0008D20FFF7A3FF00211020FFF79FFF0021CC
:1029C000AE20FFF79BFF00BD30B500240CE00025D2
:1029D00006E00020CC4901EBC5010855681CC5B2D2
:1029E000802DF6DB601CC4B2082CF0DBFFF7ADFFD6
:1029F00030BDF0B5144600267F2801DC3F2900DDFC
:102A0000F0BD0B46CF1701EB5777FF10C7F1070753
:102A1000FAB2CF1701EB5777FF10A1EBC707FDB252
:102A2000C5F107070123BB40DEB24CB1B64B03EB47
:102A3000C0039B5C3343B44F07EBC007BB5408E0B3
:102A4000B14B03EBC0039B5CB343AF4F07EBC00735
:102A5000BB5400BFD4E72DE9F04F80460C46154625
:102A60001E46A346A5F12000C5B200273EE00C2E6D
:102A700007D105EB4500A54901EB800010F8079050
:102A800004E0A34800EB051010F807904FF0000A8F
:102A900026E009F0800028B121464046099AFFF758
:102AA000A8FF09E0099808B9012000E000200246CB
:102AB00021464046FFF79DFF4FEA49604FEA106903
:102AC000601CC4B2A4EB0B00B04205D15C4608F117
:102AD000010000F0FF0806E00AF1010000F0FF0A23
:102AE000BAF1080FD5DB00BF781CC7B2B742BEDB16
:102AF000BDE8F08F10B50246012000E050430B1EE8
:102B0000A1F10104E1B2F9D110BD2DE9FF4F81B06F
:102B1000074691461E460E9D4FF0000A002439E0FC
:102B2000301B401EC1B20A20FFF7E4FFB9FBF0F0F2
:102B30000A21B0FBF1F201FB1208BAF1000F16D125
:102B4000701EA04213DDB8F1000F0ED10120AB467C
:102B500005EBDB71491001FB04710090C8B22B46F4
:102B600020220299FFF777FF12E04FF0010A0120BF
:102B7000AB4605EBDB71491001FB04710090C8B254
:102B800008F13001CAB22B460299FFF764FF00BF7B
:102B9000601CC4B2B442C3DB05B0BDE8F08F78B5A9
:102BA00005460E46144618E07A2D03DD002506F191
:102BB0001000C6B23A2E04DD002005460646FFF797
:102BC00003FF0120009022780C2331462846FFF7AE
:102BD00042FF05F10800C5B2641C20780028E3D14B
:102BE00078BD2DE9F04105462C460021204601F034
:102BF000CBF906D284F000444FF0FF30454988609D
:102C000002E0012043498860204601F042F9414931
:102C10000860086801F022F98046214600F023FF91
:102C200007463D4900F022FF064601F032F93949D6
:102C300048600846BDE8F0812DE9F843044688461F
:102C400016461D46089F3046FFF7CBFF3349086004
:102C5000084600688068002808DD01200C232B222C
:102C6000414600902046FFF7F6FE07E001200C23C6
:102C70002D22414600902046FFF7EDFE0C2027490B
:102C8000009009680A6804F10801C8B22B46414661
:102C9000FFF73BFF0120A11D082202FB0511009058
:102CA000C8B20C232E224146FFF7D5FE1B48006810
:102CB000406864287DDA032F4FD10C2004F10C0109
:102CC000082202FB05110090C8B2012300224146F0
:102CD000FFF71BFF1148006840680A2820DB0C2022
:102CE0000E49009009684A6804F11201082303FBA9
:102CF0000511C8B202234146FFF707FF7EE000003E
:102D0000BC0121429481214290000020B44400087B
:102D1000284900089004002000007A444800002060
:102D20000C2004F11201082202FB05110090C8B228
:102D3000012300224146FFF7E8FE0C208149009064
:102D400009684A6804F11801082303FB0511C8B299
:102D500001234146FFF7D9FE50E07A4800684068F9
:102D6000002811DB77480068406864280CDA0C20E2
:102D700004F10C01082202FB05110090C8B20123E6
:102D800000224146FFF7C1FE6E48006840680A21F4
:102D900090FBF1F90C2004F11201082202FB05114D
:102DA0000090C8B201234A464146FFF7AEFE25E037
:102DB000FFE7032F0FD10C206249009009684A6891
:102DC00004F10C01082303FB0511C8B2032341469B
:102DD000FFF79BFE12E05B48006840680A2190FB09
:102DE000F1F90C2004F10C01082202FB05110090FE
:102DF000C8B202234A464146FFF787FEBDE8F88382
:102E000008B501210820FEF797F93820ADF8000039
:102E100010208DF8030002208DF8020069464A4810
:102E2000FDF768FE01210420FEF786F94FF400400B
:102E3000ADF8000002208DF8020010208DF803008C
:102E400069464248FDF756FE0120FDF7ACFF002021
:102E5000FEF7DFF80020FDF796FD0020FDF7A3FF49
:102E600000203B4908606420FFF74CFB01203949F2
:102E7000C1F88C010021AE20FFF740FD0021D520D4
:102E8000FFF73CFD00215020FFF738FD0021A8206E
:102E9000FFF734FD00213F20FFF730FD0021D32054
:102EA000FFF72CFD00210846FFF728FD00214020F8
:102EB000FFF724FD00218D20FFF720FD00211420C5
:102EC000FFF71CFD00212020FFF718FD0021022044
:102ED000FFF714FD0021A120FFF710FD0021C02005
:102EE000FFF70CFD0021DA20FFF708FD002112207A
:102EF000FFF704FD00218120FFF700FD0021EF20F6
:102F0000FFF7FCFC0021D920FFF7F8FC0021F1209D
:102F1000FFF7F4FC0021DB20FFF7F0FC002130205C
:102F2000FFF7ECFC0021A420FFF7E8FC0021A6201D
:102F3000FFF7E4FC0021AF20FFF7E0FCFFF744FDC2
:102F400008BD000048000020000C014000080140BE
:102F50008C812142008021427FB505460C4601212B
:102F60000846FEF7F6F8ADF80850ADF8044000202A
:102F7000ADF80A00ADF8060001A94FF08040FEF759
:102F800013FA012211469007FEF785FD1C208DF8EB
:102F9000000000208DF801008DF8020001208DF85E
:102FA00003006846FDF753FA01218807FEF758FD34
:102FB0007FBD000000B587B001214FF40170FEF71E
:102FC000BBF84FF40040FEF71BF80220ADF80400F8
:102FD00000208DF8070001A93648FDF78BFD364823
:102FE000FDF79EFA002002908DF80C008DF80D0080
:102FF0004FF4602004900020059001208DF8180007
:1030000002A92D48FDF7B3FA01212B48FDF7DBFAA1
:103010002948FDF7FAFA00BF2748FDF7FBFA002818
:10302000FAD12548FDF700FB00BF2348FDF701FB5F
:103030000028FAD107B000BD10B5044607230122CD
:1030400021461D48FDF72BFB01211B48FDF7FBFA2C
:1030500000BF02211848FDF767FC0028F9D0164888
:10306000FDF784FB10BD2DE9F04F85B00120FFF77F
:10307000E3FF019000F000FF4FF066320F4BCDE907
:10308000020100F00AFE804600220D4B00F005FE12
:10309000064600220B4B00F000FE044600220A4BBD
:1030A00000F06DFE824600F021FF0490049805B008
:1030B000BDE8F08F000801400024014066660A4028
:1030C00000002640000059400000B04008B5012132
:1030D0000420FEF731F82020ADF8000048208DF8DC
:1030E000030069465248FDF705FD08BD2DE9F04192
:1030F00005460C46284600F0BAFE804641464FF091
:103100007E5000F0E5FC07464A4900F0AFFC064659
:103110004948007850B10020484908704849088063
:103120004849088048490880484908804248007852
:1031300030B147480068012802D100203E4908709C
:1031400043480068A0B93C48007888B901203B4951
:1031500008703D480088401C80B23B490880A0426E
:1031600006DD0020088037480088401C354908806B
:103170003146384800F0ACFC074600F0A3FE80B2B0
:1031800030490988884205DA01202B49087003205C
:10319000BDE8F0812948007890B12D4800680128E9
:1031A0000ED12A480088401C80B228490880A042DD
:1031B00006DD0020088022480088401C2049088045
:1031C0001E480078F8B13146234800F081FC0746DC
:1031D00000F078FE80B21A490988884213DA314635
:1031E0001E4800F075FC074600F06CFE80B21449E2
:1031F0000988884207DD16480068B8B901200E49E1
:1032000008700220C4E70D48007878B131461348B1
:1032100000F05EFC074600F055FE80B208490988C0
:10322000884203DA012004490870B1E70020AFE7C3
:103230000008014000007A445100002050000020A6
:103240004C0000204E0000205200002054000020BE
:10325000140121420000FA43000048420000964356
:1032600010B502460023002002E0145C6340401CBD
:103270008842FADB184610BD2DE9F04186B00746BA
:10328000884616461D4600247A222146641C01A861
:1032900042542146641C47542146641C00F80180B6
:1032A000002D08DD3EB101A908192A46314600F07B
:1032B00073FB6019C4B2214601A8FFF7D1FF214674
:1032C000621CD4B201AA50547B222046611CCCB2AD
:1032D00001A90A54214601A8FFF715FA06B0BDE876
:1032E000F08110B5044600231A4606212046FFF758
:1032F000C3FF10BD10B5044600231A460521204621
:10330000FFF7BAFF10BD38B505460C46200A8DF808
:103310000000E0B28DF8010002236A460121284630
:10332000FFF7AAFF38BD38B505460C46200A8DF8D0
:103330000000E0B28DF8010002236A460021284611
:10334000FFF79AFF38BD38B505460C46200E8DF8BC
:103350000000200C8DF80100200A8DF80200E0B278
:103360008DF8030004236A4602212846FFF784FFF4
:1033700038BD38B505460C46B4F5616F01DB40F643
:103380000F64200A8DF80000E0B28DF801000223DE
:103390006A4603212846FFF76FFF38BD38B505465A
:1033A0000C46009401236A460E212846FFF764FF6D
:1033B00038BD38B505460C46200A8DF80000E0B24D
:1033C0008DF8010002236A4607212846FFF754FFC3
:1033D00038BD10B5044600231A4608212046FFF7E1
:1033E0004BFF10BD10B5044600231A4609212046A4
:1033F000FFF742FF10BD10B5044600231A460A210C
:103400002046FFF739FF10BD10B5044600231A46C9
:103410000B212046FFF730FF10BD38B505460C469E
:10342000009401236A460D212846FFF725FF38BD89
:10343000F0B5044652480078062877D2DFE800F05D
:10344000030D2133434F7A2C06D14E4804700120DE
:103450004D4908704A4908708FE0012C01D0022CB8
:103460000BD1494801780078401C474A1070454804
:10347000445402204249087002E00020404908708C
:103480007BE0042C0BDC404801780078401C3E4A6D
:1034900010703C48445403203949087002E0002071
:1034A0003749087069E0384801780078401C364A8E
:1034B00010703448445410460078072802DB04207A
:1034C0002F49087059E0304801780078401C2E4A96
:1034D00010702C4844540520294908704DE07B2C7D
:1034E0003FD1294801780078401C274A10702548B0
:1034F00044540721FFF7B4FE05462248C079A8428C
:103500002ED1204E7378B278F67836061D4F3F796B
:1035100046EA07461B4F7F7946EA0726194FBF79CF
:1035200046EA0701012B02D1184E01E01FE0184EB8
:103530003046052A10D2DFE802F00306080A0D0023
:103540000EB2068008E0416006E0018104E00EB2A0
:10355000468101E0818100BF00BF0126867300BF64
:1035600000BF0020064908700749087005E00020E8
:10357000034908700449087000BF00BFF0BD000097
:1035800057000020BC040020560000209C040020AE
:10359000AC0400202DE9F04F85B082468B46002018
:1035A00004905146584600F093FA019000F0BDFC9B
:1035B000CDE9020100F06EFE06464FF0C042D04B4E
:1035C00000F06BFB04460022CE4B00F063FB80460C
:1035D00000F0BEFC0490049805B0BDE8F08F2DE922
:1035E000F04F85B082468B460020049051465846E5
:1035F00000F06EFA019000F098FCCDE9020100F0B5
:1036000049FE06464FF0C042BD4B00F046FB044663
:103610000022BD4B00F03EFB804600F099FC049078
:10362000049805B0BDE8F08F2DE9F05FB748007849
:1036300008B9BDE8F09F0020B4490870B44800887C
:1036400000F015FC8046B34900F00DFA0446B2487C
:10365000008800F00CFC80464FF0864100F003FA31
:103660000546AE480168204600F0FAF98146AC48AC
:103670000168284600F0F4F98246A8480460A8488A
:103680000560002600274946A64800F0EFF980466D
:1036900021464FF07A5000F0E9F98346414600F0A8
:1036A0008DF9064651464FF07A5000F0DFF980461A
:1036B00029469D4800F0DAF98346414600F07EF93C
:1036C000074624F000489949404600F05DFC00D8C8
:1036D000002625F000489549404600F055FC00D8EA
:1036E00000279349304600F059FC00D2904E914992
:1036F000304600F049FC00D28E4E8D49384600F02D
:103700004DFC00D28A4F8B49384600F03DFC00D278
:10371000884F8949304600F0A9F980468749884892
:10372000006800F0A3F98346414600F047F9844958
:1037300008608149384600F099F980467F49814800
:10374000006800F093F98346414600F037F97D495F
:1037500008607D497A48006800F088F9834600F0E7
:1037600098FB0FFA80F841460120FFF7CCFDC820F6
:10377000FEF7A0FE4FF07E517248006800F076F927
:10378000834600F086FB0FFA80F841460220FFF7DF
:10379000BAFD00BF4DE710B501218807FEF729FCEF
:1037A00058B301218807FEF735FCFFF73DFFFFF70F
:1037B0005AFC66490968084464490860644800780E
:1037C000401CC0B262490870642816D15F48006886
:1037D00000F044FB04465F4900F07AF95E49086056
:1037E00000205A4908605A4908705C48006808B9C6
:1037F000012000E000205949086010BD38B5FFF7EE
:10380000A4F857A200210846FFF7C9F95548B0F9B6
:103810000000002805DA54A200211020FFF7BFF9AC
:1038200004E052A200211020FFF7B9F94D48B0F989
:1038300000400C200090002C01DB204600E060429C
:103840000246042300211820FFF75FF948A20A214D
:103850000020FFF7A4F94748B0F90000002805DA76
:1038600041A20A211020FFF79AF904E03FA20A21A1
:103870001020FFF794F93F48B0F900400C20009069
:10388000002C01DB204600E06042024604230A21AE
:103890001820FFF73AF938A200215020FFF77FF9EE
:1038A0000C20042300901A48028800216020FFF7B2
:1038B0002CF932A20A215020FFF771F90C200423C1
:1038C0000090154802880A216020FFF71EF92CA2FB
:1038D00014215020FFF763F90C48007828B12AA280
:1038E00014216820FFF75BF904E028A21421682066
:1038F000FFF755F926A21E215020FFF750F938BDD9
:1039000066A64C4000E06040008056404200002027
:103910003E000020000026434000002074000020EC
:1039200078000020CDCC4C3ECDCCCC3E0000704188
:103930000000F0410000F0C13333333F9A99993EC3
:103940007C00002080000020000080BF5800002084
:103950005C00002000401C466000002090012142D5
:10396000313A00009C0400202D0000002B000000D4
:10397000323A0000AC040020583A0000593A0000E6
:103980004441543A000000004F4B00002D2D000030
:10399000373561636300000040EA01039B0703D0F1
:1039A00009E008C9121F08C0042AFAD203E011F87E
:1039B000013B00F8013B521EF9D27047F0B480EA97
:1039C0000102D40F4200B2EB410F02D20246084678
:1039D00011464A0042D0C30DDDB2C1F3C752AD1A41
:1039E000202D35DAC1F3160141F4000204B1524230
:1039F000C5F1200602FA06F12A411044B3EBD05F6C
:103A000023D0C4B1012DA0EBC35009DCF0BC4FF0B2
:103A1000004202EAC352DBB200F5000000F002BB34
:103A2000400000F1807000EBC350A0F1807040EACC
:103A3000D170490009E0490841EAC071A0EBC350C8
:103A400000F50000400800EBC350F0BC00F0E1BA04
:103A50006142012202EB4101001BF6E7F0BC704716
:103A600081F00041AAE780F00040A7E780EA010268
:103A700010B502F00043400022D04A001FD0010ED2
:103A800001EB1261C0F35600C2F3560240F400008D
:103A900042F40002A0FB022000047F39140400D08D
:103AA000401C50EA124001D44000491EC2B20C062C
:103AB00004EBD010401C4008802A02D003E0002014
:103AC00010BD20F00100002900DA0020184310BDCD
:103AD00030B480EA010202F0004530F0004221F0EB
:103AE000004013D090B1C30DD40DC2F31601C0F342
:103AF0001600E41A41F4000140F400027D349142C2
:103B000001D3641C00E04900002C02DA30BC002024
:103B100070474FF400000023914201D3891A0343F8
:103B200040084FEA4101F7D151B1914202D14FF023
:103B3000004105E002D24FF0010101E06FF0010108
:103B400003EBC450284430BC00F063BA2DE9FE4FAB
:103B5000804681EA0300C00F0C46009021F000412E
:103B600023F00045B8EB0200A94105D240462146AA
:103B700090461C460B46024623F00040104347D0B7
:103B8000270DC7F30A00C3F30A510290401A0190AF
:103B900040286BDAC3F3130040F4801B0098924670
:103BA00020B10023D2EB030A63EB0B0B01985946BB
:103BB000C0F14002504600F0FBF906460D46504663
:103BC0005946019A00F013FA10EB080061410024F5
:103BD00087EA115284EAE7731A4340D0009A62B32D
:103BE000019A012A4FEA075215DC001B61EB020122
:103BF0004FF0004202EA0752CDE90042001C41F5B5
:103C0000801132462B4600F04AFA03B0BDE8F08F2F
:103C100040462146F9E7001B61EB0201001C41F51B
:103C2000801300185B412018A2F5001747EB030131
:103C300040EAD570B6196D4111E06D084FEA3606BD
:103C400045EAC0754FEA0752001B61EB0201001CF8
:103C500041F5801149084FEA3000001951413246C0
:103C60002B4603B0BDE8F04F00F00ABA00980122DD
:103C700040000023D0EB020263EBE0730098214682
:103C80004FEAE074B8EB000061EB0401E9E783F070
:103C900000435BE781F0004158E72DE9FE4F81EAE0
:103CA000030404F0004421F0004100944FF0000BA5
:103CB00023F0004350EA01045ED052EA03045BD0D3
:103CC000C3F30A54C1F30A552C44A4F2F33401940B
:103CD000A0FB0254C1F3130141F48011C3F3130399
:103CE00043F4801301FB024400FB034E840A970A4D
:103CF00044EA815447EA8357A4FB076802958D0A7A
:103D000005FB07854FEA932C04FB0C542705029D05
:103D10004FEA065847EA1637B5EB08056EEB070C75
:103D2000870E920E47EA811742EA8312A7FB02012F
:103D3000B6EB0B0164EB00042B0D43EA0C335E1869
:103D400044EB1C50DA465146E7FB0201C5F313046D
:103D50004FEA0B3343EA14534FEA0432019C43EA1F
:103D60000603A4F10C040294009CCDE900B400F019
:103D700096F903B0BDE8F08F00200146F9E72DE980
:103D8000F04D81EA030404F0004B21F00045144695
:103D90004FF0000A23F0004150EA050220D054EA17
:103DA00001021DD0C5F30A570246C5F31303C1F340
:103DB0001300C1F30A5640F4801543F48013A7EBB7
:103DC0000608101BD64608F2FD3873EB050002D337
:103DD00008F1010801E092185B41B8F1000F03DA25
:103DE00000200146BDE8F08D00204FF4801106460A
:103DF00084460EE0171B73EB050705D3121B63EB1C
:103E0000050306434CEA010C49084FEA30009218BA
:103E10005B4150EA0107EDD152EA030012D082EA79
:103E2000040083EA0501084305D0101BAB4106D20C
:103E30000122002306E000224FF0004302E06FF071
:103E4000010253101AEB06004CEB085110EB0A006C
:103E500041EB0B01BDE8F04D00F012B9C10F80EA53
:103E6000E0700844CA079623002100F0DBB89623CF
:103E70000022114600F0D6B80EB540F2334102914F
:103E80000021CDE900110A460B4600F008F903B005
:103E900000BD00F0004220F00040C10DC0F316004C
:103EA00040F400007F2901DA00207047962903DCE6
:103EB000C1F19601C84001E096398840002AF4D04B
:103EC0004042704720F00040C10DC0F3160040F49E
:103ED00000007F2901DA00207047962903DCC1F138
:103EE0009601C840704796398840704770B5C1F355
:103EF0000A5201F000450024C1F3130140F2FF33E0
:103F000041F480119A4201DA002070BD40F233433F
:103F10009A42A2F2334203DC524200F058F800E029
:103F200090402C43F1D0404270BD00F0004230F090
:103F300000400AD0C10D01F56071C0F3160042EADD
:103F40000151C208400711437047002001467047E5
:103F500001F0004330B421F0004150EA010206D0E4
:103F60000A0DA2F56072C1F31301002A02DC30BC15
:103F700000207047440F44EAC104C100E01830BC7F
:103F800000EBC25000F045B8002801DBC0F1004052
:103F9000002901DBC1F1004181427047002801DBAB
:103FA000C0F10040002901DBC1F1004188427047A7
:103FB000202A04DB203A00FA02F1002070479140E9
:103FC000C2F1200320FA03F3194390407047202ADE
:103FD00004DB203A21FA02F00021704721FA02F3B3
:103FE000D040C2F120029140084319467047202A70
:103FF00006DBCB17203A41FA02F043EAE07306E011
:1040000041FA02F3D040C2F1200291400843194620
:1040100070470029A8BF7047401C490008BF20F026
:104020000100704710B4B0FA80FC00FA0CF050EABE
:10403000010404BF10BC704749B1CCF1200421FA3F
:1040400004F411FA0CF118BF012121430843A3EB3A
:104050000C01CB1D4FEA00614FEA102042BF002047
:1040600010BC704700EBC35010440029A4BF10BC23
:104070007047401C490008BF20F0010010BC704789
:1040800010B5141E73F1000408DA401C41F1000160
:1040900092185B411A4301D120F0010010BD2DE9B7
:1040A000F04D92469B4611B1B1FA81F202E0B0FAAE
:1040B00080F220329046FFF77BFF04460F4640EA2D
:1040C0000A0041EA0B0153465A46084313D01146F1
:1040D00053EA010019D0C8F140025046FFF777FFBC
:1040E00005460E46504659464246FFF761FF0843D3
:1040F00005D0012004E020463946BDE8F08D0020BF
:10410000054346EAE0762C4337430A986305E40A00
:10411000A0EB08000022FD0A44EA47540A3002D509
:1041200000200146E9E7010510196941DDE908456C
:1041300000196941BDE8F04DA2E770B521F00043D8
:1041400003430CD0C1F30A550024D5EB040564EBFE
:104150000403D617AD1AB34102DB0020014670BD3F
:10416000201841EB025170BD064C074D06E0E06897
:1041700040F0010394E8070098471034AC42F6D3AE
:10418000FBF7B8FFB04F0008D04F0008490050EAD5
:10419000C12018BF04204A0D18BF40F0010040F2B2
:1041A000FF72B2EB515F08BF40F00200012808BF68
:1041B000052070472DE9F0414F1E00EBC701044672
:1041C000D1E9000115461E4637F006020DD02A46F9
:1041D0003346FFF762FD7F1E04EBC703D3E90023DC
:1041E000FFF7B4FC37F00602F1D1022F25D0042FDF
:1041F00013D0062F18BFBDE8F0812A463346FFF7DB
:104200004CFDD4E90A23FFF7A1FC2A463346FFF709
:1042100044FDD4E90823FFF799FC2A463346FFF70B
:104220003CFDD4E90623FFF791FC2A463346FFF70D
:1042300034FDD4E90423FFF789FC2A463346FFF70F
:104240002CFDD4E90223FFF781FC2A463346FFF711
:1042500024FDD4E90023BDE8F041FFF777BC01223B
:10426000FFF76BBF024A00201107FFF766BF00008F
:1042700001FDFFFF02E008C8121F08C1002AFAD1A1
:1042800070477047002001E001C1121F002AFBD1D6
:10429000704700002DE9F84F04460D4621F000401C
:1042A00000917349814211DC7249884201DC06D1D8
:1042B0002CB120462946BDE8F84FFFF7D0BF6E4825
:1042C000002DCCBF6D496E49BDE8F88F6D49814224
:1042D00011DD6D498142D8BF4FF0FF366DDD2046BC
:1042E0002946FFF753FF042808BFFFF7BBFF20460E
:1042F0002946BDE8F88F6549654F25F000458142A4
:1043000033DD6449814219DD002632464FF0804397
:1043100020462946FFF71AFC80468A46012220469D
:104320002946FFF70AFF00223B46FFF7B0FC424652
:104330005346FFF724FD04460D463EE001260022C9
:10434000BA463B4620462946FFF700FC80460F460A
:104350000022534620462946FFF799FC42463B4639
:10436000FFF70DFD04460D4627E04B4981421BDD5A
:10437000DFF828A102260022534620462946FFF7EF
:104380008CFC00223B46FFF7E1FB80460F460022F3
:10439000534620462946FFF77AFC42463B46FFF744
:1043A000EEFC04460D4608E0032622462B4600207C
:1043B0003B49FFF7E4FC04460D4622462B461046D7
:1043C0001946FFF76AFC8B46824602460B46FFF70A
:1043D00064FC07460246334888460B46062178446B
:1043E000FFF7E8FE52465B46FFF757FC82462E4831
:1043F0008B463A46434605217844FFF7DBFE3A46B2
:104400004346FFF74AFC02460B46002E50465946EB
:104410000CDAFFF79BFB22462B46FFF73EFC01B070
:1044200022462B46BDE8F04FFFF734BCFFF78EFB6A
:1044300022462B46FFF731FC1C4A7A4402EBC603A6
:10444000D3E90023FFF723FC22462B46FFF71FFC8E
:10445000174A7A4402EBC603D3E90023FFF71AFC9C
:10446000009A002AB8BF81F00041BDE8F88F000033
:10447000000010440000F07F182D4454FB21F93F48
:10448000FB21F9BF0000DC3F0000203E0000F33FAD
:104490000000F03F0000E63F008003400000F83FCE
:1044A0000000F0BF9E0B00005C0B0000FA0A000049
:1044B000C20A000000000000000000000000000030
:1044C000000000003F40000000000000000030003D
:1044D000400030004000000009000BC03D000BC050
:1044E0003D00090018C024407FE0224031800000D8
:1044F000180024C01B000D803240018003801C4046
:1045000027401C80074000401000600000000000B1
:10451000000000000000000000001F80204040203C
:104520000000402020401F8000000000090006001D
:104530001F80060009000000040004003F80040002
:1045400004000000001000600000000000000000F7
:104550000400040004000400040000000000004007
:104560000000000000000000002001C0060038002C
:10457000400000001F802040204020401F8000009D
:10458000000010403FC000400000000018C0214063
:104590002240244018400000108020402440244045
:1045A0001B80000002000D0011003FC00140000010
:1045B0003C80244024402440238000001F8024406D
:1045C00024403440038000003000200027C0380021
:1045D000200000001B802440244024401B80000059
:1045E0001C0022C0224022401F800000000000006A
:1045F000084000000000000000000000046000000F
:1046000000000000000004000A001100208040406B
:1046100009000900090009000900000000004040ED
:10462000208011000A00040018002000234024000C
:10463000180000001F802040274029401F40000034
:10464000004007C039000F0001C0004020403FC0BB
:10465000244024401B8000001F8020402040204038
:104660003080000020403FC0204020401F800000DC
:1046700020403FC024402E4030C0000020403FC0BA
:1046800024402E00300000000F0010802040224007
:104690003380020020403FC0040004003FC020409F
:1046A000204020403FC020402040000000602020EB
:1046B00020203FC02000200020403FC024400B00AD
:1046C00030C0204020403FC020400040004000C09B
:1046D0003FC03C0003C03C003FC0000020403FC042
:1046E0000C4023003FC020001F802040204020407D
:1046F0001F80000020403FC024402400180000001C
:104700001F802140214020E01FA0000020403FC02A
:104710002440260019C0004018C0244024402240F4
:1047200031800000300020403FC0204030000000B9
:1047300020003F80004000403F80200020003E00DD
:1047400001C0070038002000380007C03C0007C047
:1047500038000000204039C0060039C02040000069
:104760002000384007C0384020000000304021C001
:104770002640384020C00000000000007FE04020BC
:1047800040200000000070000C000380004000008A
:104790000000402040207FE00000000000002000DA
:1047A0004000200000000000001000100010001069
:1047B0000010001000000000400000000000000099
:1047C000000002800540054003C0004020003FC0BB
:1047D00004400440038000000000038004400440C3
:1047E0000640000000000380044024403FC0004019
:1047F0000000038005400540034000000000044025
:104800001FC0244024402000000002E00550055055
:104810000650042020403FC00440040003C0004074
:104820000000044027C000400000000000100010FD
:10483000041027E00000000020403FC001400700B6
:1048400004C00440204020403FC000400040000021
:1048500007C0040007C0040003C00000044007C0F4
:104860000440040003C000400000038004400440F2
:1048700003800000041007F004500440038000008F
:10488000000003800440045007F00010044007C0FB
:1048900002400400040000000000064005400540FE
:1048A00004C00000000004001F800440004000001D
:1048B000040007800040044007C0004004000700D7
:1048C00004C0018006000400060001C0070001C00A
:1048D00006000000044006C0010006C004400000BD
:1048E0000410071004E001800600040000000440EA
:1048F00005C00640044000000000000004007BE00A
:1049000040200000000000000000FFF00000000058
:10491000000040207BE00400000000004000800018
:1049200040002000200040000000000000000000C7
:1049300000000000000000000000000000001FCC8C
:10494000000C0000000000000000080030006000C3
:104950000800300060000000022003FC1E2002203E
:1049600003FC1E200220000000000E1811043FFF6F
:1049700010840C78000000000F0010840F3800C075
:10498000077818840078000000780F8410C4112480
:104990000E9800E400840008080068007000000021
:1049A000000000000000000000000000000007E020
:1049B00018182004400200000000400220041818CB
:1049C00007E00000000000000240024001800FF0FC
:1049D00001800240024000000080008000800FF84B
:1049E00000800080008000000001000D000E00002B
:1049F0000000000000000000000000800080008037
:104A000000800080008000800000000C000C00008E
:104A10000000000000000000000000060018006018
:104A20000180060018002000000007F008081004AC
:104A30001004080807F000000000080408041FFC28
:104A4000000400040000000000000E0C10141024EC
:104A5000104411840E0C000000000C181004110406
:104A6000110412880C700000000000E003200424F0
:104A700008241FFC0024000000001F98108411046B
:104A80001104108810700000000007F0088811045D
:104A9000110418880070000000001C00100010FCB9
:104AA00013001C001000000000000E381144108498
:104AB000108411440E38000000000700088C1044D8
:104AC0001044088807F00000000000000000030CFC
:104AD000030C0000000000000000000000010106BF
:104AE00000000000000000000000008001400220E3
:104AF00004100808100400000220022002200220F6
:104B00000220022002200000000010040808041007
:104B1000022001400080000000000E001200100C76
:104B2000106C10800F00000003E00C1813E4142434
:104B300017C4082807D000000004003C03C41C4030
:104B4000074000E4001C000410041FFC11041104C1
:104B500011040E880070000003E00C18100410040B
:104B6000100410081C10000010041FFC1004100496
:104B70001004080807F0000010041FFC11041104C1
:104B800017C410040818000010041FFC11041100C1
:104B900017C010000800000003E00C1810041004F7
:104BA00010441C780040000010041FFC108400809A
:104BB000008010841FFC10040000100410041FFC6F
:104BC0001004100400000000000300011001100197
:104BD0001FFE10001000000010041FFC11040380D1
:104BE0001464181C1004000010041FFC10040004BE
:104BF00000040004000C000010041FFC1F0000FC57
:104C00001F001FFC1004000010041FFC0C04030014
:104C100000E010181FFC100007F008081004100432
:104C20001004080807F0000010041FFC1084108016
:104C3000108010800F00000007F0081810241024C6
:104C4000101C080A07F2000010041FFC11041100D8
:104C500011C011300E0C000400000E1C1104108451
:104C6000108410441C3800001800100010041FFCB1
:104C7000100410001800000010001FF810040004B9
:104C8000000410041FF8100010001E0011E0001CAA
:104C9000007013801C0010001FC0103C00E01F00BB
:104CA00000E0103C1FC000001004180C163401C0B6
:104CB00001C01634180C100410001C00130400FC72
:104CC00013041C00100000000804101C1064108461
:104CD00013041C04101800000000000000007FFEF8
:104CE0004002400240020000000030000C0003803F
:104CF0000060001C0003000000004002400240026F
:104D00007FFE0000000000000000000020004000C6
:104D100040004000200000000001000100010001EF
:104D200000010001000100010000400040002000DF
:104D30000000000000000000000000980124014471
:104D40000144014400FC000410001FFC0088010421
:104D50000104008800700000000000700088010459
:104D600001040104008800000000007000880104B4
:104D7000010411081FFC0004000000F80144014474
:104D80000144014400C800000000010401040FFCBC
:104D90001104110411001800000000D60129012996
:104DA000012901C90106000010041FFC0084010054
:104DB0000100010400FC000400000104190419FCB6
:104DC00000040004000000000000000300010101D5
:104DD000190119FE0000000010041FFC002400400F
:104DE00001B4010C010400000000100410041FFCB9
:104DF0000004000400000000010401FC01040100A3
:104E000001FC0104010000FC010401FC008401001C
:104E10000100010400FC0004000000F8010401048A
:104E20000104010400F80000010101FF00850104F4
:104E30000104008800700000000000700088010478
:104E40000104010501FF00010104010401FC0084CB
:104E50000104010001800000000000CC01240124B5
:104E6000012401240198000000000100010007F85E
:104E70000104010400000000010001F80004000426
:104E80000004010801FC0004010001800170000C15
:104E9000001001600180010001F0010C003001C030
:104EA0000030010C01F0010000000104018C0074CD
:104EB0000170018C01040000010101810171000EEB
:104EC000001801600180010000000184010C013420
:104ED00001440184010C00000000000000000000FB
:104EE00001003EFC40024002000000000000000003
:104EF000FFFF0000000000000000400240023EFCF6
:104F00000100000000000000000060008000800040
:104F100040004000200020004FBB610567ACDD3F32
:104F2000182D4454FB21E93F9BF681D20B73EF3FD0
:104F3000182D4454FB21F93FE2652F227F2B7A3C48
:104F4000075C143326A6813CBDCBF07A8807703C01
:104F5000075C143326A6913CC4EB98999999C9BF74
:104F6000711623FEC671BCBF6D9A74AFF2B0B3BFA9
:104F70009AFDDE522DDEADBF2F6C6A2C44B4A2BF69
:104F80000D5555555555D53FFF8300922449C23FD5
:104F90006E204CC5CD45B73F513DD0A0660DB13F09
:104FA000EB0D76244B7BA93F11DA22E33AAD903F1B
:104FB000D04F000800000020840000007442000868
:104FC0005450000884000020440800008442000877
:104FD00000A24A04000000000000000001020304D7
:104FE000060708090000000001020304010203048F
:104FF000060708090204060800000000000000007F
:1050000000000000000000000000000000000000A0
:105010000000000000000000000000000000000090
:105020000000000000000000000000000000000080
:105030000000000000000000000000000000000070
:105040000000000000000000000000000000000060
:04505000000000005C
:04000005080000ED02
:00000001FF
