:020000040800F2
:100000009009002079020008E52C00087D230008F3
:10001000ED280008ED0500083D3D00080000000047
:100020000000000000000000000000001D2E00087D
:10003000BD08000800000000B12D00081F2E0008B8
:10004000930200089302000893020008930200083C
:10005000930200089302000893020008930200082C
:10006000930200089302000893020008930200081C
:10007000930200089302000893020008930200080C
:100080009302000800000000930200089302000899
:1000900093020008930200089302000893020008EC
:1000A00093020008930200089302000893020008DC
:1000B00093020008930200089302000893020008CC
:1000C00093020008930200089302000893020008BC
:1000D000930200081D3D00082D3D00089302000812
:1000E000930200089302000893020008930200089C
:1000F0009302000893020008930200080000000029
:1001000000000000930200080000000093020008B5
:100110009302000800000000930200089302000808
:10012000930200089302000893020008930200085B
:100130009302000800000000000000009302000885
:100140009302000893020008000000000000000075
:10015000000000000000000000000000000000009F
:1001600000000000000000000000000093020008F2
:1001700093020008000000000000000000000000E2
:1001800000000000930200080000000000000000D2
:10019000000000000000000000000000000000005F
:1001A0000000000000000000930200089302000815
:1001B0009302000893020008930200080000000068
:1001C0000000000093020008000000000000000092
:1001D000930200089302000800F002F800F03CF8D7
:1001E0000AA090E8000C82448344AAF10107DA4592
:1001F00001D100F031F8AFF2090EBAE80F0013F0A8
:10020000010F18BFFB1A43F001031847CC3E000052
:10021000EC3E0000103A24BF78C878C1FAD85207E3
:1002200024BF30C830C144BF04680C607047000070
:100230000023002400250026103A28BF78C1FBD8EF
:10024000520728BF30C148BF0B6070471FB503F08D
:100250000FFF1FBD10B510BD00F02DF91146FFF7BF
:10026000F5FF03F0EBFE00F04BF903B4FFF7F2FFEC
:1002700003BC00F053F900000948804709480047D3
:10028000FEE7FEE7FEE7FEE7FEE7FEE7FEE7FEE746
:10029000FEE7FEE704480549054A064B70470000A3
:1002A000952E0008D9010008900300209009002035
:1002B000900500209005002053EA020C00F06980B0
:1002C0002DE9F04B4FF00006002B1FBFB3FA83F56A
:1002D00003FA05F424FA05F65E4012BF1643B2FA9B
:1002E00082F502FA05F4C5F120051EBF22FA05FCCD
:1002F00044EA0C04203556EA044C4FEA144418BF73
:10030000641C4FF000084FF00009904271EB030CA1
:1003100039D3002919BFB1FA81F701FA07F6B0FA0B
:1003200080F700FA07F6C7F120071EBF20FA07FC86
:1003300046EA0C062037B6FBF4FCA7EB0507103F96
:1003400007F01F0BCBF120060CFA0BFB2CFA06F67C
:1003500044BFB3460026202FA4BF5E464FF0000BDB
:100360005BEA060C08BF4FF0010B19EB0B09ABFB66
:10037000027C48EB0608C01B06FB02CC0BFB03CC3F
:1003800071EB0C01C1E70B46024641464846BDE809
:10039000F08B13B54FF000004FF00001AFF3008079
:1003A000BDE81C40704740EA010310B59B070FD120
:1003B000042A0DD310C808C9121F9C42F8D020BAD5
:1003C00019BA884201D9012010BD4FF0FF3010BD8D
:1003D0001AB1D30703D0521C07E0002010BD10F85B
:1003E000013B11F8014B1B1B07D110F8013B11F821
:1003F000014B1B1B01D1921EF1D1184610BD10B547
:10040000203AC0F00B80B1E81850203AA0E818500C
:10041000B1E81850A0E81850BFF4F5AF5FEA027CCD
:1004200024BFB1E81850A0E8185044BF18C918C03C
:10043000BDE810405FEA827C24BF51F8043B40F8DD
:10044000043B08BF7047D20728BF31F8023B48BFC2
:1004500011F8012B28BF20F8023B48BF00F8012B00
:1004600070474FF0000200B5134694469646203977
:1004700022BFA0E80C50A0E80C50B1F12001BFF45D
:10048000F7AF090728BFA0E80C5048BF0CC05DF8C3
:1004900004EB890028BF40F8042B08BF704748BF11
:1004A00020F8022B11F0804F18BF00F8012B704785
:1004B000704770477047754600F02CF8AE4605004F
:1004C0006946534620F00700854618B020B5FFF76F
:1004D000E1FEBDE820404FF000064FF000074FF06E
:1004E00000084FF0000B21F00701AC46ACE8C00952
:1004F000ACE8C009ACE8C009ACE8C0098D4670475B
:1005000010B50446AFF300802046BDE81040FFF769
:10051000ACBE00000048704730030020014918209D
:10052000ABBEFEE7260002007047000070B505462E
:100530000C4615B10CB1A54201D1012070BD0122BC
:100540002946184802F034FA08B10120F6E70222E1
:100550002946154802F02CFA08B10120EEE71149AE
:10056000124800F05BF81049114800F057F8104AA3
:100570000E49104800F0A3F90D4A0C490E4803F04B
:100580000BFC204601F014FF08B10120D6E7094812
:1005900000F0A5F908B10120D0E701200749087053
:1005A0000020CBE7580100207401002090010020BA
:1005B000C8010020000200201002002000000020DE
:1005C00010B50748007800B910BD02F03FF80548A3
:1005D00003F02EFC044800F0ADF900BFF4E7000082
:1005E00000000020100200200002002000BFFEE7F3
:1005F000F0EE401AF4EEC11AF1EE10FA02DDB0EEA0
:10060000410A7047F4EEE01AF1EE10FA02D2B0EEB1
:10061000600AF6E7B0EE610AF3E7000030B587B094
:1006200004460D460CB907B030BD25609FED120A97
:1006300084ED080A9FED100A84ED090A9FED0E0A69
:1006400084ED0A0A9FED0C0A84ED0B0A00F03EFBD4
:100650002063002084F8340084F8350084F83600E4
:100660001C2206496846FFF7CAFE1C226946201D67
:10067000FFF7C5FE00BFD6E7000000007C40000881
:1006800008B180ED080A7047B0EE401A31EE602ADA
:10069000B0EE420A9FED162AC0EE022ABDEEE22A13
:1006A000F0EE421AF8EEE12A9FED113AB0EE402A40
:1006B00002EEC32AB0EE420A9FED0E2AB4EEC20A41
:1006C000F1EE10FA06DD9FED0A2A30EE422AB0EE76
:1006D000420A0CE09FED082AB4EEC20AF1EE10FACD
:1006E00005D29FED032A30EE022AB0EE420A70478F
:1006F0000000B44300003443000034C370B5044626
:100700000CB1206808B9012070BD206802F006F91C
:1007100005460DB12846F7E7022000F0D5F9002183
:10072000206802F05AFA05467DB9201D02F0DCFA75
:1007300000203034607100F0C9FA801C2060002075
:1007400020710120A071303C05E0022000F0BCF9CE
:10075000206802F0DAF82846D6E7000010B5044613
:100760000CB1206800B910BD002084F8360084F870
:1007700035009FED080A206802F03EFA022000F0E2
:10078000A3F9206802F0C1F8201D02F0ADFA00BF05
:10079000E9E700000000000070B52DED048B044671
:1007A0000D46F0EE408A2946206802F0C0F888B96C
:1007B0009FED2E0A84ED0B0A002084F83500201DE1
:1007C00002F092FA9FED290A206802F015FABDECBA
:1007D000048B70BD206802F0D9F8B0EE408A94F81E
:1007E0003500A8B984ED098A012084F835009FED11
:1007F0001F0A84ED0A0A9FED1D0A84ED0B0A201DD5
:1008000002F072FA9FED190A206802F0F5F9DEE7AE
:1008100094ED091AF0EE410A94ED081AB0EE410A7F
:10082000B0EE681A00F024F884ED090AD4ED090A44
:10083000B0EE600AF0EE480AFFF726FFB0EE409AED
:10084000F0EE680AB0EE490A201D02F059FA84ED74
:100850000A0A94ED0A0A84ED0B0AD4ED0B0AB0EEF5
:10086000600A206802F0C8F900BFB0E7000000008D
:1008700010B52DED068BF0EE409AB0EE608AF0EEEA
:10088000418AF0EE480AB0EE690AFFF7FDFEB0EECD
:1008900040AA9FED090A28EE800AB0EE409AB0EE19
:1008A000491AF1EE490AB0EE4A0AFFF7A1FE30EE0E
:1008B000080ABDEC068B10BD00007042704770B591
:1008C00004460E46154604B970BD2660656000F00A
:1008D000FDF9A06000202073607300BFF4E770B5DD
:1008E00004461CB1206808B1606808B9012070BDD9
:1008F0002068FFF703FF05460DB12846F7E7022001
:1009000000F0E2F86068FFF7F9FE054625B12068BF
:10091000FFF724FF2846EAE7022000F0D5F800F0B0
:10092000D5F9801CA0600020207301206073002096
:10093000DDE7000070B504460CB1607B00B970BD06
:1009400000F0C4F90546A068281A00D5F7E7207B17
:1009500020B1012808D0022813D10CE021680868D2
:10096000012102F0D7F813E09FED100A2946206814
:10097000FFF712FF0CE061680868012102F0CAF875
:1009800006E09FED0A0A29466068FFF705FF00BFF1
:1009900000BF207B401C2073207B042801D3002053
:1009A0002073A81CA06000BFC9E700006F12033CC1
:1009B00072B600BFFEE70146002209B90120704768
:1009C00091F82500022803D00420C863012227E003
:1009D0000868006820F001000B681860086800686B
:1009E00020F00E000B681860886C006820F480709E
:1009F0008B6C186091F8440000F01F0301209840B0
:100A00000B6C5860D1E913305860486D40B1486DA7
:100A1000006820F480704B6D1860D1E91630586082
:100A2000012081F8250000BF002081F8240000BFCC
:100A30001046C4E770B50446002594F82500022846
:100A40000BD00420E063012084F8250000BF0020C3
:100A500084F8240000BF012534E02068006820F0FD
:100A60000100216808602068006820F00E002168FD
:100A70000860A06C006820F48070A16C086094F895
:100A8000440000F01F0101208840216C4860D4E937
:100A900013104860606D40B1606D006820F4807094
:100AA000616D0860D4E916104860012084F82500C3
:100AB00000BF002084F8240000BFA06B10B12046C6
:100AC000A16B8847284670BD70B5044600F0FEF85B
:100AD00006462546681C10B104480068054400BF5E
:100AE00000F0F4F8801BA842FAD370BD2800002063
:100AF00078B503460022D2E0012696400D6805EA4B
:100B00000604002C7BD00D7905F00305012D04D0DF
:100B10000D7905F00305022D13D1986856000325C1
:100B2000B540A8435600CD68B54028439860586842
:100B300001259540A8430D79C5F30015954028433C
:100B400058600D7905F00305032D07D10D7905F0E7
:100B50000305032D0CD18D68012D09D0D8685600EE
:100B60000325B540A84356008D68B5402843D8609A
:100B70000D7905F00305022D13D1D60803F12005E8
:100B800055F826005507EE0E0F25B540A843560729
:100B9000F60E0D69B5402843D60803F1200545F847
:100BA0002600186856000325B540A8430D7905F0C6
:100BB00003055600B540284318604D6805F44035DC
:100BC000002D6BD000BF394D2D6E45F00105374E1D
:100BD000356635462D6E05F00105009500BF00BF56
:100BE0004FEAB635960855F8260095072E0F0F25C3
:100BF000B540A843B3F1904F02D100251AE04DE073
:100C00002B4DAB4201D1012514E02A4DAB4201D15D
:100C100002250FE0284DAB4201D103250AE0274D04
:100C2000AB4201D1042505E0254DAB4201D105259C
:100C300000E006259607360FB5402843214D96085B
:100C400045F82600204D2868A0434D6805F480151E
:100C500005B120431C4D28602D1D2868A0434D6818
:100C600005F4001505B12043174D2D1D2860164DC4
:100C70002D1F2868A0434D6805F4003505B12043B9
:100C8000114D2D1F28602D1F2868A0434D6805F4C5
:100C9000803505B120430C4D083D2860521C0D687D
:100CA000D540002D7FF428AF78BD00000010024031
:100CB0000004004800080048000C004800100048EC
:100CC0000014004808000140080401400148006881
:100CD00070470000200000200348006803490968AD
:100CE00008440149086070472000002028000020C7
:100CF00010B50024032000F0ABF80F2000F008F836
:100D000008B1012401E000F02FF8204610BD0000DA
:100D100070B50446002511480068D8B10F48006836
:100D20004FF47A71B1FBF0F00D490968B1FBF0F6B0
:100D3000304600F025FF58B9102C07D2002221467A
:100D4000501E00F047F80748046004E0012502E067
:100D5000012500E00125284670BD00002800002084
:100D60002C0000202400002008B500BF0E48006EB3
:100D700040F001000C4908660846006E00F00100D2
:100D8000009000BF00BF00BF0846806D40F080505B
:100D900088650846806D00F08050009000BF00BF5D
:100DA00000F0F6F808BD00000010024001460846B9
:100DB00000280DDB00BF00BF00F01F0301229A4096
:100DC00043099B0003F1E023C3F8002100BF00BFEB
:100DD00000BF70472DE9F05F80460D46164603F0D0
:100DE00011F9074639462A46334601F00700C0F19B
:100DF000070ABAF1040F02D94FF0040A01E0C0F16A
:100E0000070AD14600F1040ABAF1070F02D24FF0E7
:100E1000000A01E0A0F1030AD4464FF0010A0AFAE1
:100E200009FAAAF1010A0AEA020A0AFA0CFA4FF0D0
:100E3000010B0BFA0CFBABF1010B0BEA030B4AEABB
:100E40000B042146404603F0E5F8BDE8F09F0000A2
:100E500000BF00F00702064B19684FF6FF03194068
:100E6000044B0B4343EA0221014B196000BF70475A
:100E70000CED00E00000FA0502468ABB414800681C
:100E800000F4C060B0F5806F2BD13E488030006820
:100E900020F480703B4BC3F880001846006820F4B3
:100EA000C06040F40070186037480068322358432F
:100EB000364BB0FBF3F0411C00E0491E314840695D
:100EC00000F48060B0F5806F01D10029F5D12D4884
:100ED000406900F48060B0F5806F51D10320704705
:100EE00008E028488030006820F48070254BC3F863
:100EF000800045E0B2F5007F3AD12248006800F456
:100F0000C060B0F5806F2AD11E488030006840F480
:100F100080701C4BC3F880001846006820F4C06045
:100F200040F4007018601848006832235843174B8B
:100F3000B0FBF3F0411C00E0491E1248406900F488
:100F40008060B0F5806F01D10029F5D10D4840696E
:100F500000F48060B0F5806F12D10320BFE709482C
:100F60008030006840F48070064BC3F8800007E0D2
:100F70000448006820F4C06040F48060014B1860B1
:100F80000020ACE7007000402C00002040420F0021
:100F90000348806840F48040014988607047000041
:100FA000007000402DE9F84304460027B846206849
:100FB00000F40020B0F5002F73D1B946D348806DFE
:100FC00000F0805078B900BFD048806D40F080506C
:100FD000CE4988650846806D00F08050009000BFC3
:100FE00000BF4FF00109CA48006840F48070C8494A
:100FF0000860FFF76BFE064606E0FFF767FE801B02
:10100000022801D9032705E0C148006800F4807078
:101010000028F2D000BF002F46D1BC4890300068B5
:1010200000F44075CDB1206CA84216D0B74890307E
:10103000006820F44075B548D0F8900040F4803046
:10104000B249C1F890000846D0F8900020F48030F2
:10105000C1F890000846C0F8905005F00100A0B11A
:10106000FFF734FE064608E0FFF730FE801B41F232
:101070008831884201D9032706E0A44890300068EF
:1010800000F002000028EFD000BF5FB99F48903009
:10109000006820F44070216C08439C49C1F890001E
:1010A00003E00CE0B84600E0B846B9F1010F05D105
:1010B0009648806D20F080509449886500BF207864
:1010C00000F0010048B191488830006820F003002A
:1010D000616808438D49C1F88800207800F002005B
:1010E000022809D189488830006820F00C00A168E6
:1010F00008438649C1F88800207800F004000428DD
:1011000009D182488830006820F03000E168084347
:101110007E49C1F88800207800F00800082809D12D
:101120007A488830006820F0C00021690843774978
:10113000C1F88800207800F02000202809D17348E9
:101140008830006820F44060616908436F49C1F845
:101150008800207800F04000402809D16B48883092
:10116000006820F44050A16908436849C1F888002C
:10117000207800F08000802809D164488830006819
:1011800020F44040E16908436049C1F888002088A4
:1011900000F48070B0F5807F09D15C488830006829
:1011A00020F44030216A08435849C1F8880020885B
:1011B00000F40070B0F5007F09D154488830006811
:1011C00020F44020616A08435049C1F88800208813
:1011D00000F48060B0F5806F13D14C48883000680F
:1011E00020F44010A16A0843484988310860A06A89
:1011F000B0F5801F05D14548C06840F480104349D0
:10120000C860208800F40060B0F5006F13D13F483B
:101210008830006820F44000E16A08433B49883187
:101220000860E06AB0F5800F05D13848C06840F426
:1012300080103649C860208800F48050B0F5805F87
:1012400013D132488830006820F04070216B084389
:101250002E4988310860206BB0F1807F05D12B4882
:10126000C06840F480102949C860208800F400500C
:10127000B0F5005F13D125488830006820F0406049
:10128000616B0843214988310860606BB0F1006FE1
:1012900005D11E48C06840F480101C49C8602088F1
:1012A00000F48040B0F5804F13D1184888300068B2
:1012B00020F04060A16B0843144988310860A06B9E
:1012C000B0F1006F05D11148C06840F480100F499B
:1012D000C860208800F40040B0F5004F13D10B48DF
:1012E0008830006820F04050E16B0843074988319E
:1012F0000860E06BB0F1805F05D10448C06840F43D
:1013000080300249C8604046BDE8F88300100240C2
:10131000007000402DE9F04104460D464FF00008F2
:1013200014B90120BDE8F0817D48006800F00F008D
:10133000A8420ED27A48006820F00F00284378496E
:1013400008600846006800F00F00A84201D00120A4
:10135000E8E7207800F00100002864D060680328E6
:1013600023D17048006800F0007008B90120D9E767
:1013700001F020FD06466C48864237D969488068EE
:1013800000F0F00030B1207800F0020002282DD1EA
:10139000A06858BB6348806820F0F00040F08000EF
:1013A000604988604FF0800820E06068022806D11C
:1013B0005C48006800F4003040B90120B2E75948A9
:1013C000006800F4806008B90120ABE700F0DEF8A7
:1013D00006465548864209D95248806820F0F000F8
:1013E00040F080004F4988604FF080084D48806889
:1013F00020F00300616808434A498860FFF766FCF3
:10140000074608E0FFF762FCC01B41F288318842C2
:1014100001D9032086E74348806800F00C0061682A
:10142000B0EB810FEED1207800F00200022820D12D
:10143000207800F00400042805D13A48806840F480
:10144000E06038498860207800F00800082807D15B
:101450003448806820F4605040F4E060314988608E
:101460003048806820F0F000A16808432D4988606A
:1014700008E0B8F1800F05D12A48806820F0F0001C
:10148000284988602648006800F00F00A84219D952
:101490002348006820F00F00284321490860FFF727
:1014A00015FC074608E0FFF711FCC01B41F288312C
:1014B000884201D9032035E71948006800F00F0081
:1014C000A842F0D1207800F00400042807D1154884
:1014D000806820F4E060E168084312498860207861
:1014E00000F00800082808D10E48806820F46050F9
:1014F000216940EAC1000B49886000F047F80949BA
:101500008968C1F30311094A515C01F01F01C84009
:101510000749086007480068FFF7FAFB02E7000088
:10152000002002400010024000B4C404C040000883
:101530002C000020240000200148006870470000B3
:101540002C00002000B5FFF7F7FF05498968C1F3BB
:101550000221044A515C01F01F01C84000BD000097
:1015600000100240D040000800B5FFF7E5FF054934
:101570008968C1F3C221044A515C01F01F01C840CF
:1015800000BD000000100240D040000870B5224DA0
:10159000AD6805F00C05042D01D120483AE01E4D40
:1015A000AD6805F00C05082D01D11D4832E01A4D3B
:1015B000AD6805F00C050C2D2BD1174DED6805F02D
:1015C0000304154DED68C5F303156A1C022C0CD0FD
:1015D000032C09D1124DB5FBF2F50F4EF668C6F398
:1015E000062605FB06F10AE000BF0C4DB5FBF2F53F
:1015F000094EF668C6F3062605FB06F100BF00BFDC
:10160000054DED68C5F341656D1C6B00B1FBF3F052
:1016100000E0002070BD0000001002400024F40033
:1016200000127A002DE9F843044614B90120BDE800
:10163000F883207800F00100002865D0FC4880681D
:1016400000F00C07FA48C06800F003060C2F01D127
:10165000032E01D0082F0AD1F548006800F40030AD
:10166000002851D0606800284ED10120DFE700BF7C
:101670006068B0F5803F06D1ED48006840F48030E6
:10168000EB4908601AE06068B0F5A02F0BD1E8487C
:10169000006840F48020E64908600846006840F48D
:1016A000803008600AE0E248006820F48030E049B9
:1016B00008600846006820F48020086000BF606869
:1016C00088B1FFF703FB054606E0FFF7FFFA401B72
:1016D000642801D90320AAE7D548006800F4003047
:1016E0000028F2D010E0FFF7F1FA054606E0FFF718
:1016F000EDFA401B642801D9032098E7CC48006824
:1017000000F400300028F2D1207800F00200022816
:1017100060D1C748806800F00C07C548C06800F079
:1017200003060C2F01D1022E01D0042F18D1C0487E
:10173000006800F4806018B1E06808B9012076E71D
:10174000BB48406820F0FE40217C40EA0160B84977
:101750004860B8480068FFF7DBFA18B3012066E775
:10176000E06800B3B248006840F48070B049086097
:10177000FFF7ACFA054606E0FFF7A8FA401B02287F
:1017800001D9032053E7AA48006800F480600028CC
:10179000F2D0A748406820F0FE40217C40EA01607A
:1017A000A349486016E0A248006820F48070A04970
:1017B0000860FFF78BFA054606E0FFF787FA401B43
:1017C000022801D9032032E79948006800F48060BC
:1017D0000028F2D1207800F00800082836D160698E
:1017E000D0B193489430006840F001009049C1F8AE
:1017F0009400FFF76BFA054606E0FFF767FA401B17
:10180000022801D9032012E789489430006800F0CB
:1018100002000028F1D019E085489430006820F0DB
:1018200001008349C1F89400FFF750FA054606E02D
:10183000FFF74CFA401B022801D90320F7E67C4849
:101840009430006800F002000028F1D1207800F008
:101850000400042872D14FF000087548806D012102
:1018600021EA107078B100BF7148806D40F080505F
:101870006F4988650846806D00F08050009000BF79
:1018800000BF4FF001086C48006800F48070B0B9E8
:101890006948006840F4807067490860FFF716FAED
:1018A000054606E0FFF712FA401B022801D9032083
:1018B000BDE66148006800F480700028F2D000BFE7
:1018C000A068012808D15A489030006840F0010013
:1018D0005749C1F8900021E0A06805280FD154486D
:1018E0009030006840F004005149C1F8900008466B
:1018F000D0F8900040F00100C1F890000EE04C4894
:101900009030006820F001004949C1F89000084675
:10191000D0F8900020F00400C1F8900000BFA0684B
:10192000A8B1FFF7D3F9054609E0FFF7CFF9401B4F
:1019300041F28831884202D9032078E625E03C480C
:101940009030006800F002000028EED013E0FFF7AE
:10195000BDF9054608E0FFF7B9F9401B41F28831AF
:10196000884201D9032062E631489030006800F0D7
:1019700002000028EFD1B8F1010F05D12C48806D8D
:1019800020F080502A49886500BF207800F02000B0
:10199000202836D1A069D0B125489830006840F0A1
:1019A00001002349C1F89800FFF790F9054606E0C9
:1019B000FFF78CF9401B022801D9032037E61C48A9
:1019C0009830006800F002000028F1D019E01848B3
:1019D0009830006820F001001549C1F89800FFF721
:1019E00075F9054606E0FFF771F9401B022801D999
:1019F00003201CE60E489830006800F00200002822
:101A0000F1D1E069002860D00948806800F00C003E
:101A10000C287AD0E069022858D10548006820F0E7
:101A2000807003490860FFF751F905460DE000009A
:101A3000001002402400002000700040FFF746F92B
:101A4000401B022801D90320F1E54A48006800F054
:101A500000700028F2D1D4E90810401E41EA0011BC
:101A6000A06A41EA0021208E0122C2EB500041EA27
:101A700040513420005DC2EB500041EA40612C200F
:101A8000005D41EAC0603B49C9683B4A11400843D8
:101A90003849C8600846006840F080700860084611
:101AA000C06840F08070C860FFF710F9054606E096
:101AB000FFF70CF9401B022801D90320B7E52D4898
:101AC000006800F000700028F2D051E0294800685A
:101AD00020F0807027490860FFF7F8F8054606E017
:101AE000FFF7F4F8401B022801D903209FE52148A5
:101AF000006800F000700028F2D11E48C0681F493D
:101B000008401C49C86033E0FFE7E069012800D1C4
:101B10008DE51848C66806F00301206A814225D188
:101B200006F0F001606A401EB1EB001F1ED106F402
:101B3000FE41A06AB1EB002F18D106F078412C20AD
:101B4000005DB1EBC06F11D106F4C001208E0122FF
:101B5000C2EB5000B1EB405F08D106F0C061342009
:101B6000005DC2EB5000B1EB406F01D001205EE59B
:101B700000205CE5001002400C809F01FCFFEEFE9F
:101B800070B504462546681EB0F1807F01D3012060
:101B90000FE0681E4FF0E02148610F214FF0FF3049
:101BA00002F038FA00204FF0E02188610720086138
:101BB000002070BD014600BF91F88400012801D1CA
:101BC00002207047012081F8840000BF2420C1F862
:101BD0008800086802680868006820F001000B6847
:101BE000186022F000520020486608680260202039
:101BF000C1F8880000BF002081F8840000BF00BF4A
:101C0000DFE77047704770B504460D4600BF94F893
:101C10008400012801D1022070BD012084F88400D5
:101C200000BF2420C4F88800206806682068006887
:101C300020F00100216808602068806820F0606062
:101C4000284321688860204601F02EF9206806604C
:101C50002020C4F8880000BF002084F8840000BF62
:101C600000BFD9E770B504460D4600BF94F8840064
:101C7000012801D1022070BD012084F8840000BF3A
:101C80002420C4F88800206806682068006820F0D6
:101C90000100216808602068806820F060402843C7
:101CA00021688860204601F0FFF820680660202047
:101CB000C4F8880000BF002084F8840000BF00BF83
:101CC000D9E77047704710B50446204600F0DAFFA8
:101CD000204600F0E9FC10BD2DE9F04704462068DD
:101CE000C569206806682068876840F60F0005EA25
:101CF0000009B9F1000F0FD105F0200060B106F026
:101D0000200010B907F0805030B1606F10B120464C
:101D1000616F8847BDE8F087B9F1000F7ED0DF48DA
:101D2000384018B9DE4830400028F7D005F00100EF
:101D300058B106F4807040B1012021680862D4F8DF
:101D4000900040F00100C4F8900005F0020058B186
:101D500007F0010040B1022021680862D4F8900029
:101D600040F00400C4F8900005F0040058B107F0FA
:101D7000010040B1042021680862D4F8900040F0CE
:101D80000200C4F8900005F0080070B106F02000D1
:101D900010B9C248384040B1082021680862D4F820
:101DA000900040F00800C4F8900005F4006060B1B5
:101DB00006F0806048B14FF4006021680862D4F8F2
:101DC000900040F02000C4F89000D4F89000002863
:101DD00052D005F0200050B106F0200010B907F0F5
:101DE000805020B1606F10B12046616F8847D4F8F1
:101DF00090A02068806800F04000402802D00AF0DF
:101E0000280070B3204601F073F92068806800F064
:101E10004000402826D100BF00BF00E02DE021682F
:101E2000083151E8001F21F040002168083141E8E5
:101E30000002002AF1D100BFD4F8800068B19948AF
:101E4000D4F880108863D4F88000FEF7F3FD98B1D1
:101E5000D4F88000816B88470EE02046FFF733FFFF
:101E60000AE003E02046FFF72EFF05E02046FFF7DB
:101E70002AFF0020C4F890004CE7E06E012865D1ED
:101E800005F01000002861D006F010000028FAD0FC
:101E90001020216808622068806800F04000402817
:101EA0007AD1D4F88000006840681FFA80F8B8F151
:101EB000000F5CD0B4F85C00404558DDA4F85E80AB
:101EC000D4F880000068006800F02000E8BB00BF84
:101ED00000BF216851E8001F21F48070226842E8A9
:101EE00000010029F5D100BF00BF00BF2168083103
:101EF00051E8001F21F001002168083141E800028B
:101F0000002AF3D100BF00BF00BF2168083151E8AB
:101F1000001F21F040002168083141E80002002A3A
:101F2000F3D100BF2020C4F88C000020E06600BF81
:101F300000BF216851E8001F21F01000226842E82C
:101F400000010029F5D100BF01E004E068E0D4F809
:101F50008000FEF730FD02202067B4F85C00B4F882
:101F60005E20801A81B22046FFF74BFE12E0B4F8E3
:101F70005C0040450ED1D4F880000068006800F095
:101F80002000202806D102202067B4F85C102046EB
:101F9000FFF737FEBEE6FFE734F85C0F6188401AB2
:101FA0001FFA80F860885C3CC8B3B8F1000F36D0E7
:101FB00000BF00BF216851E8001F21F49070226823
:101FC00042E800010029F5D100BF00BF00BF216831
:101FD000083151E8001F314AD24301EA020021686A
:101FE000083141E80002002AF1D100BF2020C4F8E6
:101FF0008C000020E066606700BF00BF216851E8E8
:10200000001F21F01000226842E800010029F5D1EC
:1020100000BF0220206741462046FFF7F2FD79E627
:1020200005F4801050B107F4800038B14FF48010EF
:10203000216808622046FFF745FE6BE605F0800048
:1020400058B106F0800010B907F4000028B1A06F65
:1020500010B12046A16F88475CE605F0400030B122
:1020600006F0400018B1204601F078F852E605F479
:10207000000030B106F0804018B12046FFF721FE85
:1020800048E605F0807030B106F0004018B12046F7
:10209000FFF7B8FD3EE600BF3CE60000010000107F
:1020A00020010004E330000810B504460CB90120FB
:1020B00010BDA06900B100E000BFD4F8880028B9C5
:1020C000002084F88400204600F02AF82420C4F878
:1020D00088002068006820F0010021680860A06A7C
:1020E00010B1204600F00CFF204601F051FB012802
:1020F00000D1DDE72068406820F490402168486006
:102100002068806820F02A002168886020680068C4
:1021100040F0010021680860204600F06DFFC7E72D
:1021200010B598B00446142113A8FEF79AF944217B
:1021300002A8FEF796F93C492068884232D1012076
:1021400002900020039002A8FEF72CFF08B1FEF7D2
:102150002FFC00BF3548006E40F4804033490866CC
:102160000846006E00F48040019000BF00BF00BF31
:102170000846C06C40F00400C8640846C06C00F01B
:102180000400019000BF00BF302013900220149083
:102190000020159016900720179013A92448FEF7E9
:1021A000A7FC3EE02349206888423AD102200290F1
:1021B0000020049002A8FEF7F5FE08B1FEF7F8FB38
:1021C00000BF1A48806D40F4003018498865084601
:1021D000806D00F40030019000BF00BF00BF0846D2
:1021E000C06C40F00100C8640846C06C00F00100FB
:1021F000019000BF00BF0C2013900220149000201B
:10220000159016900720179013A94FF09040FEF7F5
:102210006FFC002206212620FEF7DCFD2620FEF7BB
:10222000C5FD18B010BD000000380140001002408C
:10223000000800480044004070B504460D461646AC
:10224000D4F88C00202821D105B10EB9012070BD31
:102250000020E0660E492068884211D0206840685E
:1022600000F4000060B100BF00BF216851E8001F0A
:1022700041F08060226842E800010029F5D100BFEA
:1022800032462946204601F045FCE0E70220DEE721
:102290000080004010B50446204600F00BFD2046AB
:1022A00000F028FA10BD2DE9F84F04460E461746F7
:1022B0009946D4F8880020285DD106B117B90120CD
:1022C000BDE8F88F00205434E06321206063FEF7FE
:1022D000FDFC824627806780543CA068B0F5805F93
:1022E00004D1206910B90025B04602E035464FF010
:1022F000000829E05346002280212046CDF80090B6
:1023000001F0B6FC20B12020C4F888000320D7E7F4
:1023100045B9B8F80000C0F308002168886208F1E8
:10232000020803E02878216888626D1CD4F88800D0
:1023300000F02100212805D1B4F85600401EA4F871
:10234000560001E00120BBE7B4F856000028D1D1C7
:102350005346002240212046CDF8009001F088FC31
:1023600020B12020C4F888000320A9E72020C4F869
:1023700088000020A4E70220A2E7704700BFFEE724
:1023800070B504460E4615463CB10848007D20B1A4
:102390000648C068301AA84201D9002070BD182232
:1023A00002492046FEF72BF80120F7E7080300203A
:1023B00010B504460CB9012010BD1548046000207A
:1023C0001449087014490880144908801449087099
:1023D0001449087018211448FEF743F813480021E7
:1023E000016041608160C16011492068884207D165
:1023F000002206212620FEF7EDFC2620FEF7D6FC63
:102400000122044902480068FFF716FFD4E70000E4
:1024100014000020180000201A0000201C000020DA
:102420001E0000201F0000200803002020030020C1
:10243000004400402DE9F04188B005460E461446A0
:10244000012007904FF00A084DB144B10F2E06D37A
:102450002878242803D1701E285C232803D000206C
:1024600008B0BDE8F08106A82C2307AA31460090E9
:10247000284600F0ADF860B305A82C2307AA314622
:102480000090284600F0A4F818B304A82C2307AA4B
:1024900031460090284600F09BF8D0B103A82C23C9
:1024A00007AA31460090284600F092F888B102A8A9
:1024B0002C2307AA31460090284600F089F840B145
:1024C00001A82C2307AA31460090284600F080F886
:1024D00008B90020C4E7BDF81C7015E0BDF81C0069
:1024E000285C202809D3BDF81C00285C7E2804D86D
:1024F000BDF81C00285C2C2801D10020B0E7BDF8F5
:102500001C00401C80B20790701EBDF81C10884251
:10251000E4D80698B04233D105980E2830D1BDF8E2
:102520001C0087422CD0BDF81C00C01B404527D1A1
:10253000E819424622A1FDF736FF08BB0498B0F522
:10254000A06F1DD20398B0F5347F19D202981428D9
:1025500016D30298B0F5967F12D8019814280FD39D
:102560000198B0F5967F0BD8029904980844B0F50D
:10257000A06F05D8019903980844B0F5347F01D9BC
:1025800000206DE704982080039860800298A08066
:102590000198E0800299049800EB51002081019994
:1025A000039800EB51006081FEF790FBE060074864
:1025B0000069401C20610120207500BF50E7000029
:1025C000537465656C5F62616C6C000008030020E9
:1025D0002DE9F04104461F46069E00239C460CB19F
:1025E00002B116B90020BDE8F08118E01088255C22
:1025F000302D01DB392D01DD0020F4E74FF0010C17
:10260000A5F1300003EB830800EB48030E4883423A
:1026100001D90020E7E71088401C108000BF108817
:10262000884203DA1088205CB842DFD1BCF1000F89
:1026300002D01088884201DB0020D4E71088401CBB
:10264000108033600120CEE7A086010000B587B07E
:102650001048007808B907B000BD01AA0E480188EB
:102660000E48FFF7E7FE50B1182201A90C48FDF70C
:10267000C6FE0C480068401C0A49086004E009488E
:102680004068401C0749486000200249087000BFAC
:10269000E1E700001F0000201C000020A80200202D
:1026A000080300202003002010B504460C480068F1
:1026B00018B10B480068844200D010BD0948C068BA
:1026C000401C0849C8600020074908700749088075
:1026D0000122074902480068FFF7AEFD00BFECE7A2
:1026E00014000020200300201E0000201A000020FB
:1026F0001800002070B505462D48006818B12C4818
:102700000068854200D070BD2A480078242805D191
:1027100000202949088001202849087027480078AE
:1027200000283CD02448008860282ED221490A780D
:1027300021490888411C204B198021490A541D4811
:10274000007823282BD11F48007898B9002405E091
:102750001B48005D1C490855601C84B2164800885F
:102760008442F5DB14480088184908800120154987
:10277000087004E016488068401C154988600020F5
:102780000E4908700C49088009E011484068401C57
:102790000F49486000200949087007490880012254
:1027A000044903480068FFF747FD00BFABE700009E
:1027B00014000020180000201A0000201E00002035
:1027C000480200201F000020A80200201C0000205A
:1027D0002003002008B500BF0D48C06C40F0010088
:1027E0000B49C8640846C06C00F00100009000BFAF
:1027F00000BF00BF0846C06C40F00400C864084633
:10280000C06C00F00400009000BF00BF08BD0000D5
:102810000010024010B51848184908604FF4E13024
:102820004860002115488160C16001610C2141614F
:1028300000218161C1610162416200200F4988620B
:102840000846FFF731FC08B1FEF7B2F800210B484B
:10285000FFF708FA08B1FEF7ABF800210748FFF7C9
:10286000D2F908B1FEF7A4F80448FFF7A3F908B1BC
:10287000FEF79EF810BD0000003801403000002037
:1028800010B51848184908604FF4E130486000213D
:1028900015488160C16001610C21416100218161A5
:1028A000C1610162416200200F4988620846FFF75A
:1028B000FBFB08B1FEF77CF800210B48FFF7D2F9CB
:1028C00008B1FEF775F800210748FFF79CF908B139
:1028D000FEF76EF80448FFF76DF908B1FEF768F8E7
:1028E00010BD000000440040C400002000BFFEE70F
:1028F00010B502460B460020002103E0545C604006
:102900004C1CE1B29942F9DB10BD10B5044600231E
:102910001A460521204600F029F910BD10B50446DD
:1029200000231A460621204600F020F910BD024679
:102930001AB1907E08B1507E08B9002070475069E6
:10294000081A642801D80120F8E70020F6E7000003
:10295000024600210FE00B4850F8210048B1094819
:1029600050F821000079904203D1064850F8210028
:102970007047481CC1B2044800788142EBDB00205C
:10298000F6E70000080000201000002010B99FEDBD
:10299000060A7047C16800EE101AB8EEC00ADFEDF3
:1029A000030A20EE200AF4E700000000CDCCCC3D65
:1029B0002DE9F04104460D46174604B115B9012032
:1029C000BDE8F0812D480078022806D22B48007817
:1029D00028B12B480068854201D00120F0E700268D
:1029E00009E0284850F826000079B84201D10120BA
:1029F000E6E7701CC6B2214800788642F1DB25600C
:102A000027710020A060E060206160612076607620
:102A1000A0761A48007828BB1948056000201A499A
:102A20000870164801780078401C144A1070154848
:102A300040F82140002205212520FEF7CBF9252072
:102A4000FEF7B4F9012211492846FFF7F5FB80464D
:102A5000B8F1000F04D00020084908700849086048
:102A60004046ADE7054801780078401C034A1070E5
:102A7000044840F821400020A2E700001000002098
:102A80000400002008000020120000201100002097
:102A90002DE9F0411E4800787A280BD11C48007AB5
:102AA0007B2807D107211A48FFF722FF1849C97967
:102AB000884201D0BDE8F08115494878FFF748FF0A
:102AC000044604B9F6E712488678C0780006104933
:102AD000097940EA01400E49497940EA01200C4950
:102AE000897940EA0107FEF7F1F8054626B9A760A3
:102AF00025610120207607E0012E04D1E7606561A1
:102B00000120607600E0D5E70120A07600BFD1E784
:102B10003C02002038B505460C46009401236A4665
:102B20000E21284600F022F838BD000010B50446FA
:102B30000C48007810B97A2C00D010BD09480178F3
:102B40000078401C074A107007484454104600782B
:102B5000092804D1FFF79CFF00200249087000BF3C
:102B6000EBE70000120000203C0200202DE9FE43AC
:102B700005460F4690461C461DB1286808B1042C36
:102B800002D90120BDE8FE837A208DF80000287963
:102B90008DF801008DF80270002606E018F8061086
:102BA000F01C0DF80010701CC6B2A642F6DBE01C4B
:102BB000C1B26846FFF79CFEE11C0DF801007B21C5
:102BC000201D0DF80010601D00F0FF0905234A4686
:102BD00069462868FFF767FBD4E738B505460C4619
:102BE000002000908DF8014002236A46002128460B
:102BF000FFF7BCFF38BD000030B52DED028B81B072
:102C00000546B0EE408A9FED1D0AB4EEC08AF1EE93
:102C100010FA04DD9FED190AB0EE408A0AE09FED3C
:102C2000180AB4EEC08AF1EE10FA03D29FED140A2E
:102C3000B0EE408AB5EEC08AF1EE10FA04DBB6EED3
:102C4000000A38EE000A03E0B6EE000A38EE400A49
:102C5000BDEEC00A10EE100A04B2200A8DF8000082
:102C6000E0B28DF8010002236A4601212846FFF7F1
:102C70007DFF01B0BDEC028B30BD000000007A4446
:102C800000007AC410B504460748006858B10648E9
:102C90000068844207D100200449087001220449D9
:102CA0002046FFF7C9FA10BD0400002012000020E2
:102CB0001100002010B504460848006860B10748BC
:102CC0000068844208D106480078FFF72FFF0122F0
:102CD00003492046FFF7B0FA10BD000004000020B1
:102CE0001100002000BFFEE79FED040A80ED030AFB
:102CF0009FED020A80ED040A70470000000000000A
:102D000010B52DED068B0446B0EE408AB0EE609A09
:102D100094ED040A38EE400AC0EE090AF0EE60AA0B
:102D200094ED030A08EE090AF0EE409A94ED000AC9
:102D300020EE080AD4ED010A00EEA90AD4ED020A39
:102D400000EEAA0AF0EE408A94ED060AB0EE401AB0
:102D500094ED050AF0EE400AB0EE680AFDF748FC73
:102D6000B0EE40AAF4EE4A8AF1EE10FA17D094EDD4
:102D7000060AB4EEE80AF1EE10FA04D2B5EEC08A03
:102D8000F1EE10FA0BD394ED050AB4EEE80AF1EE79
:102D900010FA06DDB5EEC08AF1EE10FA01DDC4EDE1
:102DA000039A84ED048AB0EE4A0ABDEC068B10BD8E
:102DB0007047000070B5164DED6805F00304144D22
:102DC000ED68C5F303156B1C022C0CD0032C09D144
:102DD000104DB5FBF3F50E4EF668C6F3062605FB5F
:102DE00006F10AE000BF0C4DB5FBF3F5084EF6689E
:102DF000C6F3062605FB06F100BF00BF044DED68D3
:102E0000C5F341656D1C6A00B1FBF2F070BD0000B6
:102E10000010024000127A000024F400704710B540
:102E2000FDF75AFF10BD00B593B0382105A8FDF796
:102E300018FB14216846FDF714FB0020FEF71CF870
:102E400002200590C00108904020099002200C90BB
:102E500002210D9104210E9155210F910221109113
:102E60001191129105A8FEF7DDFB08B1FDF7A0FD59
:102E70000F20009003200190002002900390049006
:102E800004216846FEF746FA08B1FDF791FD13B03C
:102E900000BD00000348006840F47000014908606C
:102EA0007047000088ED00E070B5456E2DB9012532
:102EB000A0F86A50A0F868501CE0082308240568B0
:102EC000AD68C5F342610568AD686A0F0A4DAD5C37
:102ED00015FB04F5094EB65C95FBF6F5A0F86A50B3
:102EE000054D6D5C15FB03F5044E765C95FBF6F520
:102EF000A0F8685070BD0000B0400008B84000085D
:102F000090F8281001F00801082907D101684968E4
:102F100021F40041826B11430268516090F828103F
:102F200001F0010139B10168496821F40031C26A38
:102F300011430268516090F8281001F00201022943
:102F400007D10168496821F48031026B114302689E
:102F5000516090F8281001F00401042907D101689C
:102F6000496821F48021426B11430268516090F856
:102F7000281001F01001102907D10168896821F497
:102F80008051C26B11430268916090F8281001F0E3
:102F90002001202907D10168896821F40051026CC1
:102FA00011430268916090F8281001F04001402917
:102FB00013D10168496821F48011426C1143026801
:102FC0005160416CB1F5801F07D10168496821F457
:102FD000C001826C11430268516090F8281001F022
:102FE0008001802907D10168496821F40021C26C61
:102FF000114302685160704738B504460020C4F898
:103000009000FDF763FE05462068006800F00800A8
:10301000082821D16FF07E402B4600224FF400118A
:103020000090204600F024FEB0B100BF00BF216830
:1030300051E8001F21F08000226842E800010029C9
:10304000F5D100BF2020C4F8880000BF002084F81C
:10305000840000BF032038BD2068006800F0040031
:10306000042830D16FF07E402B4600224FF48001BF
:103070000090204600F0FCFD28B300BF00BF21688F
:1030800051E8001F21F49070226842E800010029F5
:10309000F5D100BF00BF00BF2168083151E8001F13
:1030A00021F001002168083141E80002002AF3D133
:1030B00000BF2020C4F88C0000BF002084F88400EA
:1030C00000BF0320C7E72020C4F88800C4F88C00A4
:1030D0000020E066206700BF84F8840000BF00BFC6
:1030E000B9E770B50446A56A2846FEF7ECFD70BD49
:1030F00000BF00BF026852E8002F22F490710368FD
:1031000043E80012002AF5D100BF00BF00BF0268EB
:10311000083252E8002F104B02EA0301026808321D
:1031200042E80013002BF2D100BFC16E01290CD17F
:1031300000BF00BF026852E8002F22F010010368B0
:1031400043E80012002AF5D100BF2021C0F88C10FE
:103150000021C16641677047FEFFFFEF10B50446CE
:1031600000BF00BF216851E8001F21F04000226825
:1031700042E800010029F5D100BF2020C4F88800F2
:103180000020A0672046FFF7F8F810BD2DE9F041B8
:103190000446B4F86070D4F88C0022286ED1206800
:1031A000406A86B2A56D06EA07002880A06D801CE3
:1031B000A065B4F85E00401EA4F85E00B4F85E009E
:1031C000002861D100BF00BF216851E8001F21F431
:1031D0009070226842E800010029F5D100BF00BFCD
:1031E00000BF2168083151E8001F21F0010021686B
:1031F000083141E80002002AF3D100BF2020C4F8C2
:103200008C0000206067206720492068884211D028
:103210002068406800F4000060B100BF00BF216872
:1032200051E8001F21F08060226842E80001002977
:10323000F5D100BFE06E01281CD10020E06600BF80
:1032400000BF216851E8001F21F01000226842E809
:1032500000010029F5D100BF2068C069C0F300104B
:1032600010B1102021680862B4F85C102046FEF707
:10327000C8FC09E02046FFF70DF805E020688069EA
:1032800040F0080021688861BDE8F08100800040BE
:103290002DE9F84F0446B4F860B02068C56920688D
:1032A000006800902068D0F808A0D4F88C0022288C
:1032B0007ED1B4F86890AEE02068406A1FFA80F8CA
:1032C000A76D08EA0B003880A06D801CA065B4F8DB
:1032D0005E00401EA4F85E002068C56905F0070086
:1032E000B0B305F0010060B1009800F4807040B107
:1032F000012021680862D4F8900040F00100C4F871
:10330000900005F0020058B10AF0010040B102201F
:1033100021680862D4F8900040F00400C4F89000DE
:1033200005F0040058B10AF0010040B10420216802
:103330000862D4F8900040F00200C4F89000D4F87D
:10334000900028B12046FEF7BEFC0020C4F8900093
:10335000B4F85E0000285ED100BF00BF216851E8CC
:10336000001F21F48070226842E800010029F5D195
:1033700000BF00BF00BF2168083151E8001F414A6B
:1033800001EA02002168083141E80002002AF2D176
:1033900000BF2020C4F88C000020606720673A49F5
:1033A0002068884213D02068406800F4000000E0E4
:1033B0005FE060B100BF00BF216851E8001F21F04D
:1033C0008060226842E800010029F5D100BFE06E6C
:1033D00001281CD10020E06600BF00BF216851E831
:1033E000001F21F01000226842E800010029F5D1F9
:1033F00000BF2068C069C0F3001010B11020216820
:103400000862B4F85C102046FEF7FBFB02E02046A1
:10341000FEF740FF07E0B9F1000F04D005F02000EF
:1034200000287FF449AF00BFB4F85E6006B3B4F87B
:103430006800B04223DD00BF00BF2168083151E8B9
:10344000001F21F080502168083141E80002002A65
:10345000F3D100BF0D48606700BF00BF216851E88D
:10346000001F41F02000226842E800010029F5D148
:1034700005E02068806940F0080021688861BDE8A7
:10348000F88F0000FEFFFFEF008000408D31000844
:1034900070B50446B4F86060D4F88C0022286FD16F
:1034A0002068406A85B2F0B22840A16D0870A06D16
:1034B000401CA065B4F85E00401EA4F85E00B4F89D
:1034C0005E00002862D100BF00BF216851E8001FE4
:1034D00021F49070226842E800010029F5D100BF74
:1034E00000BF00BF2168083151E8001F21F0010032
:1034F0002168083141E80002002AF3D100BF2020F2
:10350000C4F88C0000206067206721492068884249
:1035100011D02068406800F4000060B100BF00BF17
:10352000216851E8001F21F08060226842E8000114
:103530000029F5D100BFE06E01281CD10020E06613
:1035400000BF00BF216851E8001F21F01000226871
:1035500042E800010029F5D100BF2068C069C0F32E
:10356000001010B1102021680862B4F85C102046E9
:10357000FEF747FB0AE02046FEF78CFE06E0FFE779
:103580002068806940F008002168886170BD0000F3
:10359000008000402DE9F05F0446B4F860A0206888
:1035A000C5692068D0F800B02068D0F80890D4F839
:1035B0008C0022287ED1B4F86880ADE02068406A93
:1035C00087B20AF0FF003840A16D0870A06D401C62
:1035D000A065B4F85E00401EA4F85E002068C569CE
:1035E00005F00700A8B305F0010058B10BF4807096
:1035F00040B1012021680862D4F8900040F0010039
:10360000C4F8900005F0020058B109F0010040B183
:10361000022021680862D4F8900040F00400C4F849
:10362000900005F0040058B109F0010040B10420F9
:1036300021680862D4F8900040F00200C4F89000BD
:10364000D4F8900028B12046FEF73DFB0020C4F8D6
:103650009000B4F85E0000285ED100BF00BF216872
:1036600051E8001F21F48070226842E8000100291F
:10367000F5D100BF00BF00BF2168083151E8001F2D
:10368000404A01EA02002168083141E80002002AAC
:10369000F2D100BF2020C4F88C00002060672067B2
:1036A00039492068884213D02068406800F400003F
:1036B00070B100E05EE000BF00BF216851E8001F6C
:1036C00021F08060226842E800010029F5D100BFA6
:1036D000E06E01281CD10020E06600BF00BF216819
:1036E00051E8001F21F01000226842E80001002983
:1036F000F5D100BF2068C069C0F3001010B11020E0
:1037000021680862B4F85C102046FEF77AFA02E0FD
:103710002046FEF7BFFD07E0B8F1000F04D005F02A
:10372000200000287FF44AAF00BFB4F85E6006B303
:10373000B4F86800B04223DD00BF00BF2168083143
:1037400051E8001F21F080502168083141E8000253
:10375000002AF3D100BF0D48606700BF00BF216899
:1037600051E8001F41F02000226842E800010029D2
:10377000F5D105E02068806940F008002168886183
:10378000BDE8F09FFEFFFFEF00800040913400088D
:103790002DE9FE4F044600200290D449206888425B
:1037A00000D100E000BF2169A068084361690843B7
:1037B000E16940EA010820680068CD49084040EA14
:1037C0000800216808602068406820F44050E168E3
:1037D000084321684860D4F81880C44920688842AA
:1037E00002D0206A40EA080820688068C149084081
:1037F00040EA0800216888602068C06A20F00F0055
:10380000616A08432168C86200BFBB4920688842DA
:1038100016D1BA48006800F0030030B1012808D082
:10382000022804D0032808D105E0012507E002257D
:1038300005E0042503E0082501E0102500BF6FE046
:10384000AF492068884216D1AC48006800F00C00EF
:1038500030B1042808D0082804D00C2808D105E08D
:10386000002507E0022505E0042503E0082501E026
:10387000102500BF54E0A3492068884216D19F4814
:10388000006800F0300030B1102808D0202804D0A3
:10389000302808D105E0002507E0022505E00425D1
:1038A00003E0082501E0102500BF39E096492068B3
:1038B000884216D19148006800F0C00030B140281D
:1038C00008D0802804D0C02808D105E0002507E0F2
:1038D000022505E0042503E0082501E0102500BFCE
:1038E0001EE082492068884219D18448006800F4AB
:1038F000406048B1B0F5806F0AD0B0F5006F05D0D8
:10390000B0F5406F08D105E0002507E0022505E08D
:10391000042503E0082501E0102500BF00E0102584
:1039200000BF72492068884259D135B1022D08D0B4
:10393000042D08D0082D0DD109E0FDF703FE064641
:103940000CE0724E0AE0FDF721FE064606E04FF459
:10395000004603E000260120029000BF00BF002EB9
:1039600010D06B49606A31F81000B6FBF0F960685E
:1039700000EB4000484503D860680003484502D288
:1039800001200290A6E06249606A31F810C06246E8
:10399000002330461946FCF78FFC4FF4807C002250
:1039A000A0FB0C3B01FB0CB100FB0211606840085E
:1039B00018185141CDE90001D4F804C06246002333
:1039C000FCF77AFC0746B7F5407F05D3B7F5801FB3
:1039D00002D22068C7607DE0012002907AE0E069B1
:1039E000B0F5004F3FD1092D17D2DFE805F00509EA
:1039F0000D160F1616161300FDF7A4FD064610E06F
:103A0000FDF7B2FD06460CE0404E0AE0FDF7BEFDB4
:103A1000064606E04FF4004603E00026012002902F
:103A200000BF00BF86B33A49606A31F81000B6FBA8
:103A3000F0F04000616800EB5100B0FBF1F7102F8F
:103A40000ED3B7F5803F0BD24FF6F07007EA000AAD
:103A5000C7F342004AEA000A2068C0F80CA039E027
:103A60000120029036E0092D18D2DFE805F00509A3
:103A70000E17101717171400FDF764FD064611E026
:103A8000FDF772FD06460DE024E0204E0AE0FDF74A
:103A90007DFD064606E04FF4004603E000260120C7
:103AA000029000BF00BFAEB11949606A31F8100042
:103AB000B6FBF0F0616800EB5100B0FBF1F7102F9E
:103AC00006D3B7F5803F03D2B8B22168C86001E0E1
:103AD000012002900120A4F86A00A4F868000020E8
:103AE0006067A0670298BDE8FE8F0000008000407C
:103AF000F369FFCFFFF4FF11003801408810024046
:103B00000044004000480040004C00400024F40005
:103B10009840000830B503469965A3F85C20A3F8E7
:103B20005E200020586700BF9868B0F5805F0AD11A
:103B3000186920B940F2FF10A3F8600020E0FF20D0
:103B4000A3F860001CE0986848B9186918B9FF200C
:103B5000A3F8600014E07F20A3F8600010E09868EC
:103B6000B0F1805F09D1186918B97F20A3F860000F
:103B700006E03F20A3F8600002E00020A3F8600008
:103B800000BF0020C3F890002220C3F88C0000BFC3
:103B900000BF1C68083454E8004F44F001001C6862
:103BA000083444E80005002DF3D100BF586EB0F191
:103BB000005F2CD1B3F86800904228DC9868B0F51B
:103BC000805F04D1186910B92548586701E025487D
:103BD0005867186960B100BF00BF1C6854E8004F07
:103BE00044F480701D6845E80004002CF5D100BF46
:103BF00000BF00BF1C68083454E8004F44F08050F8
:103C00001C68083444E80005002DF3D126E09868CC
:103C1000B0F5805F04D1186910B91348586701E006
:103C200012485867186960B100BF00BF1C6854E8AB
:103C3000004F44F490701D6845E80004002CF5D155
:103C40000CE000BF00BF1C6854E8004F44F02000A7
:103C50001D6845E80004002CF5D100BF002030BDF0
:103C600091320008953500088D3100089134000824
:103C70002DE9F04104460D4617469846069E41E060
:103C8000701C00283ED0FDF721F8A0EB0800B042E0
:103C900000D816B90320BDE8F0812068006800F064
:103CA000040070B3802D2DD0402D2BD02068C0692A
:103CB000C0F3C00078B10820216808622046FFF7F1
:103CC00017FA0820C4F8900000BF002084F8840090
:103CD00000BF0120DFE72068C069C0F3C02080B1C9
:103CE0004FF40060216808622046FFF701FA2020A7
:103CF000C4F8900000BF002084F8840000BF0320B7
:103D0000C9E7FFE72068C0692840A84201D1012027
:103D100000E00020B842B3D00020BCE710B5024854
:103D2000FDF7DAFF10BD00003000002010B502489A
:103D3000FDF7D2FF10BD0000C400002000BFFEE769
:103D4000B0EE401AB1EE600AB4EEC01AF1EE10FA0D
:103D500007DDB4EEE01AF1EE10FA02D29FED020A8E
:103D60007047B0EE410AFBE700000000F0EE401A99
:103D7000F4EEC11AF1EE10FA02DDB0EE410A70471E
:103D8000F4EEE01AF1EE10FA02D2B0EE600AF6E7B5
:103D9000B0EE610AF3E7000070B504460E46154622
:103DA00004B970BD266065609FED0F0A84ED020ABC
:103DB0009FED0E0A84ED030A9FED0D0A84ED040ABF
:103DC0009FED0B0A84ED050A00202062FCF77EFFC0
:103DD0006062002084F8280084F82900204600F062
:103DE00009F800BFDDE70000008020440080B843F0
:103DF0000000000010B504469FED0B0A84ED060A92
:103E00009FED0A0A84ED070AD4ED060AB0EE600AB7
:103E10002068FCF735FCD4ED070AB0EE600A606854
:103E2000FCF72EFC10BD0000000034430000000031
:103E300030B52DED028B87B004461CB1206808B167
:103E4000606818B907B0BDEC028B30BDFCF73EFFCF
:103E50000546606A281A00D5F4E705F1140060628F
:103E60004FF49672294601A8FEF78AFA80B900201D
:103E700084F8290084F828009FED5B0A84ED040A89
:103E80009FED590A84ED050A2046FFF7B3FFD9E7F5
:103E9000012084F829000598216A88423CD00598C1
:103EA000206294F8280098B9BDF80C0000EE100AC2
:103EB000B8EE400A84ED020ABDF80E0000EE100ACA
:103EC000B8EE400A84ED030A012084F8280023E0BC
:103ED000BDF80C0000EE100AB8EE400AD4ED020A5C
:103EE00070EE600A94ED020A9FED401A01EE200A7E
:103EF00084ED020ABDF80E0000EE100AB8EE400A8A
:103F0000D4ED030A70EE600A94ED030A9FED371AB0
:103F100001EE200A84ED030AD4ED020A9FED341A63
:103F200070EEC10AB0EE600AF2EE040AFFF708FF75
:103F300084ED040AD4ED030A9FED2E1A70EEC10A37
:103F4000B0EE600AF1EE080AFFF7FAFE84ED050A0A
:103F500094ED040ADFED280A20EE200AD4ED050ACC
:103F60009FED211A01EE200AB0EE408A94ED040A7A
:103F7000DFED1D0A20EE200AD4ED050A9FED1F1A81
:103F800001EE200AF0EE408AB2EE041AFAEE040ABC
:103F9000B0EE480AFFF7EAFEB0EE408AB2EE041A2D
:103FA000FAEE040AB0EE680AFFF7E0FEF0EE408A8F
:103FB0009FED130A38EE000A84ED060A9FED0A0A07
:103FC00038EE800A84ED070AD4ED060AB0EE600AE6
:103FD0002068FCF755FBD4ED070AB0EE600A606874
:103FE000FCF74EFB00BF2DE7000000003333B33E6B
:103FF000008020440080B8430AD7A33C0AD7A3BC62
:104000000000344302480068C0F3022070470000FB
:104010000CED00E010B5002804DB0A07130E054A7A
:10402000135406E00A07140E034A00F00F031B1F87
:10403000D45410BD00E400E018ED00E0FCF758FE99
:10404000FEF7F1FEFEF7C6FBFEF7E4FBFEF718FCF9
:1040500005490648FCF76AFA08B1FCF7A9FC01E03B
:10406000FCF7AEFAFCE70000C4000020300000209E
:104070004FF04070E1EE100A704700000000004071
:10408000000000000AD7A33C000000000000000070
:104090000000C8C20000C84201000200040006007F
:1040A00008000A000C001000200040008000000101
:1040B00001010103070100000804020408010101D5
:1040C00000000000000000000102030406070809C8
:1040D0000000000001020304F84000080000002076
:1040E00030000000140200082841000830000020C1
:1040F000600900003002000800000000000000001D
:1041000000000000000000000000000000000000AF
:10411000000000000000000000000000100000008F
:08412000010000000024F4007E
:04000005080001D915
:00000001FF
